:020000040800F2
:100000005007002089010008E91A00082519000896
:10001000E51A00088F0200086D21000800000000AA
:10002000000000000000000000000000191B000894
:100030009302000800000000ED1A00081B1B0008D6
:10004000A3010008A3010008A3010008A301000800
:10005000A3010008A3010008A3010008A3010008F0
:10006000A3010008A3010008A3010008A3010008E0
:10007000A3010008A3010008A3010008A3010008D0
:10008000A3010008A3010008A3010008A3010008C0
:10009000A3010008A3010008A3010008A3010008B0
:1000A000A3010008A3010008A3010008A3010008A0
:1000B000A3010008A3010008A3010008A301000890
:1000C000A3010008A3010008A3010008A301000880
:1000D000A30100084D2100085D210008A3010008CC
:1000E000A3010008A3010008A301000800F002F822
:1000F00000F03AF80AA090E8000C82448344AAF188
:100100000107DA4501D100F02FF8AFF2090EBAE885
:100110000F0013F0010F18BFFB1A43F0010318473B
:100120000C2100002C210000103A24BF78C878C1AF
:10013000FAD8520724BF30C830C144BF04680C60ED
:10014000704700000023002400250026103A28BF35
:1001500078C1FBD8520728BF30C148BF0B60704739
:100160001FB51FBD10B510BD00F058F81146FFF7C0
:10017000F7FF02F019F800F076F803B4FFF7F2FF8A
:1001800003BC00F07DF8000009488047094800479B
:10019000FEE7FEE7FEE7FEE7FEE7FEE7FEE7FEE737
:1001A000FEE7FEE704480549054A064B7047000094
:1001B000891B0008ED0000085001002050070020B6
:1001C00050030020500300204FF0000200B51346FA
:1001D00094469646203922BFA0E80C50A0E80C5067
:1001E000B1F12001BFF4F7AF090728BFA0E80C5018
:1001F00048BF0CC05DF804EB890028BF40F8042B11
:1002000008BF704748BF20F8022B11F0804F18BF7D
:1002100000F8012B7047704770477047754600F033
:100220002BF8AE4605006946534620F00700854688
:1002300018B020B5FFF7B6FFBDE820404FF000062C
:100240004FF000074FF000084FF0000B21F00701BE
:10025000AC46ACE8C009ACE8C009ACE8C009ACE801
:10026000C0098D46704710B50446AFF300802046A4
:10027000BDE81040FFF781BF00487047F000002044
:1002800001491820ABBEFEE726000200704700BF00
:10029000FEE7704772B600BFFEE70146002291F804
:1002A0002100022808D00420886300BF002081F8C4
:1002B000200000BF012070470868006820F00E0091
:1002C0000B6818600868006820F001000B6818606F
:1002D00091F8403001209840CB6B5860012081F8A4
:1002E000210000BF002081F8200000BF1046E2E797
:1002F00070B50446002594F82100022803D004209C
:10030000A063012548E02068006820F00E00216805
:1003100008602068006820F00100216808601F491B
:100320002068884201D1012026E01C491431206850
:10033000884201D110201FE01849283120688842E6
:1003400001D1801518E015493C312068884201D15F
:10035000801411E0114950312068884202D14FF4D5
:10036000803009E00D4964312068884202D14FF4A1
:10037000801001E04FF08070084908394860012082
:1003800084F8210000BF002084F8200000BF606BCB
:1003900010B12046616B8847284670BD08000240B6
:1003A00070B5044600F0A6F906462546681C10B153
:1003B00004480078054400BF00F09CF9801BA84267
:1003C000FAD370BD100000202DE9F8470346002243
:1003D00094466EE14FF0010808FA02F4D1F800806B
:1003E00008EA0400A0427DD1DFF8DCA2D1F8048045
:1003F000A8EB0A09D0453AD014DCB8F1030F50D06D
:1004000009DCB8F1000F31D0B8F1010F1CD0B8F100
:10041000020F49D120E0B8F1110F18D0B8F1120F36
:1004200042D11EE0B9F5881F25D006DCB9F5803F22
:1004300020D0B9F5801F37D11AE0B9F5001F18D0C8
:10044000B9F5041F30D117E0D1F80CC02DE0D1F878
:100450000C8008F1040C28E0D1F80C8008F1080C9D
:1004600023E0D1F80C8008F10C0C1EE000BF00BFA7
:1004700000BF00BF00BF00BFD1F80880B8F1000F77
:1004800002D14FF0040C0BE0D1F80880B8F1010F55
:1004900003D14FF0080C1C6102E04FF0080C5C61C6
:1004A00003E04FF0000C00E000BF00BFFF2801D8C0
:1004B000984601E003F104084646FF2802D84FEAB7
:1004C000820803E0A2F108084FEA88084746D6F8F8
:1004D00000804FF00F0909FA07F928EA09080CFA19
:1004E00007F900E088E048EA0908C6F80080D1F87A
:1004F000048008F08058B8F1805F7DD100BFDFF83C
:10050000CC81D8F8188048F00108DFF8C091C9F80C
:100510001880C846D8F8188008F00108CDF8008087
:1005200000BF00BF4FEAB9384FEA920958F8295086
:100530004FEA82784FEA18794FF00F0808FA09F865
:1005400025EA0805DFF88881434502D14FF000080D
:1005500016E0DFF88081434502D14FF001080FE03B
:10056000DFF87481434502D14FF0020808E0DFF85C
:100570006C81434502D14FF0030801E04FF00408BD
:100580004FEA82794FEA197908FA09F848EA05052D
:10059000DFF84C814FEA920948F82950D1F80480DD
:1005A00008F48018B8F5801F0AD1DFF83881D8F830
:1005B000008048EA0008DFF82C91C9F8008009E0C3
:1005C000DFF82081D8F8008028EA0008DFF81491CD
:1005D000C9F80080D1F8048008F40018B8F5001FAD
:1005E00010D1DFF8008108F10408D8F8008048EA4B
:1005F0000008DFF8F09000E05AE009F10409C9F8BA
:1006000000800DE0DFF8DC8008F10408D8F80080F5
:1006100028EA0008DFF8CC9009F10409C9F8008045
:10062000D1F8048008F40038B8F5003F0ED1DFF8A7
:10063000B480A8F10408D8F8008048EA0008DFF880
:10064000A490A9F10409C9F800800DE0DFF89480B6
:10065000A8F10408D8F8008028EA0008DFF88490A0
:10066000A9F10409C9F80080D1F8048008F48038A1
:10067000B8F5803F0ED1DFF86C80A8F10808D8F8F3
:10068000008048EA0008DFF85C90A9F10809C9F881
:1006900000800DE0DFF84C80A8F10808D8F8008051
:1006A00028EA0008DFF83C90A9F10809C9F80080A1
:1006B000521CD1F8008028FA02F8B8F1000F7FF43C
:1006C00089AEBDE8F887000000001110001002405C
:1006D00000080140000C01400010014000140140DE
:1006E00008000140080401400AB1016101E00B0467
:1006F000036170470148006870470000080000204F
:1007000003480068034909780844014908607047B4
:10071000080000201000002010B50848006840F0D4
:10072000100006490860032000F0A8F80F2000F030
:1007300007F800F02BF8002010BD00000020024058
:1007400070B504460E4800784FF47A71B1FBF0F0B2
:100750000C490968B1FBF0F5284600F0F9FB08B137
:10076000012070BD102C07D200222146501E00F03F
:1007700047F80548046001E00120F2E70020F0E7B7
:1007800010000020140000200C00002008B500BF5D
:100790001148806940F001000F498861084680696E
:1007A00000F00100009000BF00BF00BF0846C06914
:1007B00040F08050C8610846C06900F08050009049
:1007C00000BF00BF00BF0549486820F0E06040F06E
:1007D0000070486000BF08BD0010024000000140EA
:1007E00001460846002809DB00F01F0301229A4059
:1007F00043099B0003F1E023C3F8002100BF7047C9
:100800002DE9F05F80460D461646002701F0B0FC4A
:10081000074639462A46334601F00700C0F1070A69
:10082000BAF1040F02D94FF0040A01E0C0F1070A3F
:10083000D14600F1040ABAF1070F02D24FF0000AC4
:1008400001E0A0F1030AD4464FF0010A0AFA09FABE
:10085000AAF1010A0AEA020A0AFA0CFA4FF0010B9D
:100860000BFA0CFBABF1010B0BEA030B4AEA0B048E
:100870002146404601F084FCBDE8F09F00BF00F037
:100880000702064B19684FF6FF031940044B0B4350
:1008900043EA0221014B196000BF70470CED00E0F4
:1008A0000000FA0570B504460D460CB9012070BD74
:1008B0005A48006800F00700A8420ED25748006866
:1008C00020F007002843554908600846006800F0FA
:1008D0000700A84201D00120E9E7207800F00200DB
:1008E00002281DD1207800F00400042805D14C48CE
:1008F000406840F4E0604A494860207800F0080011
:10090000082805D14648406840F460504449486092
:100910004348406820F0F000A1680843404948601F
:10092000207800F0010078B36068012806D13C48C7
:10093000006800F4003090B90120B8E76068022830
:1009400006D13748006800F0007040B90120AEE7DA
:100950003348006800F0020008B90120A7E73048DA
:10096000406820F00300616808432D494860FFF7A4
:10097000C1FE064609E0FFF7BDFE801B41F288314B
:10098000884202D9032092E707E02548406800F03A
:100990000C006168B0EB810FEDD12048006800F0D9
:1009A0000700A8420ED91D48006820F00700284320
:1009B0001A4908600846006800F00700A84201D004
:1009C000012074E7207800F00400042807D11448BF
:1009D000406820F4E060E1680843114948602078ED
:1009E00000F00800082808D10D48406820F4605045
:1009F000216940EAC1000A49486000F03FF808490F
:100A00004968C1F30311074A515CC84006490860B0
:100A100006480068FFF794FE002048E700200240E7
:100A20000010024012220008140000200C000020D8
:100A300001480068704700001400002000B5FFF76F
:100A4000F7FF04494968C1F30221034A515CC840D9
:100A500000BD0000001002402222000800B5FFF790
:100A6000E7FF04494968C1F3C221034A515CC84009
:100A700000BD0000001002402222000870B50021D5
:100A80000022002400230020134D696801F00C05AA
:100A9000F5B1042D02D0082D19D101E00F4819E05D
:100AA0000F4DC1F38346AB5D01F4803555B10A4D5E
:100AB0006D68C5F340450B4E725D084D5D43B5FB57
:100AC000F2F402E0084D03FB05F4204602E000BF0B
:100AD000024800BF00BF70BD0010024000127A0043
:100AE000002200081022000800093D00F8B5044665
:100AF0000CB90120F8BD207800F00100002878D062
:100B0000F848406800F00C0004280CD0F548406814
:100B100000F00C00082811D1F248406800F4803041
:100B2000B0F5803F0AD1EF48006800F4003000289B
:100B30005FD0606800285CD10120DBE700BF6068FF
:100B4000B0F5803F06D1E748006840F48030E549C1
:100B5000086028E0606858B9E248006820F48030F6
:100B6000E04908600846006820F4802008601AE028
:100B70006068B0F5A02F0BD1DA48006840F48020FF
:100B8000D84908600846006840F4803008600AE0F0
:100B9000D448006820F48030D249086008460068D4
:100BA00020F48020086000BF606888B1FFF7A2FDD4
:100BB000054606E0FFF79EFD401B642801D903208F
:100BC00098E7C848006800F400300028F2D010E030
:100BD000FFF790FD054606E0FFF78CFD401B6428FB
:100BE00001D9032086E7BF48006800F400300028E0
:100BF000F2D1207800F00200022857D1B9484068AD
:100C000000F00C0050B1B748406800F00C00082814
:100C100018D1B448406800F4803098B9B1480068F1
:100C200000F0020020B12069012801D0012061E715
:100C3000AC48006820F0F800616940EAC100A949A9
:100C4000086033E02069E8B10120A7490860FFF798
:100C500051FD054606E0FFF74DFD401B022801D976
:100C6000032047E79F48006800F002000028F2D008
:100C70009C48006820F0F800616940EAC100994989
:100C8000086013E0002098490860FFF733FD05462F
:100C900006E0FFF72FFD401B022801D9032029E7BA
:100CA0009048006800F002000028F2D1207800F09F
:100CB000080008282DD1A069B8B101208B4908602F
:100CC000FFF718FD054606E0FFF714FD401B02285C
:100CD00001D903200EE78348406A00F00200002893
:100CE000F2D0012000F004FF13E000207F490860EB
:100CF000FFF700FD054606E0FFF7FCFC401B02285D
:100D000001D90320F6E67748406A00F00200002887
:100D1000F2D1207800F00400042873D10027714834
:100D2000C06900F0805070B900BF6E48C06940F0E3
:100D300080506C49C8610846C06900F0805000903E
:100D400000BF00BF01276A48006800F48070B0B996
:100D50006748006840F4807065490860FFF7CAFC86
:100D6000054606E0FFF7C6FC401B642801D90320B6
:100D7000C0E65F48006800F480700028F2D000BF31
:100D8000E068012806D15748006A40F00100554943
:100D9000086227E0E06858B95248006A20F0010074
:100DA000504908620846006A20F00400086219E011
:100DB000E06805280BD14B48006A40F0040049491F
:100DC00008620846006A40F0010008620AE04548EF
:100DD000006A20F00100434908620846006A20F0DA
:100DE0000400086200BFE068A0B1FFF783FC05467D
:100DF00009E0FFF77FFC401B41F28831884202D9AD
:100E0000032077E622E03748006A00F0020000285D
:100E1000EFD012E0FFF76EFC054608E0FFF76AFC32
:100E2000401B41F28831884201D9032062E62D48F7
:100E3000006A00F002000028F0D1012F05D12948F6
:100E4000C06920F080502749C86100BFE069C8B37D
:100E50002448406800F00C00082860D0E0690228AF
:100E600048D1002020490866FFF744FC054606E00B
:100E7000FFF740FC401B022801D903203AE619483D
:100E8000006800F000700028F2D1206AB0F5803FC1
:100E900007D11448406820F40030A1680843114984
:100EA0004860D4E9080108430E49496821F47411E7
:100EB00008430C49486001200B490866FFF71AFCFB
:100EC000054607E03DE0FFF715FC401B022801D96D
:100ED00003200FE60348006800F000700028F2D0FD
:100EE0002FE0000000100240000042428004424215
:100EF00000700040002014490866FFF7FBFB054620
:100F000006E0FFF7F7FB401B022801D90320F1E5BB
:100F10000E48006800F000700028F2D111E0E0698E
:100F2000012800D1E6E50948466806F48031206AC8
:100F3000814204D106F47011606A814201D001201F
:100F4000D8E50020D6E50000000042420010024033
:100F500070B504462546681EB0F1807F01D301209C
:100F60000FE0681E4FF0E02148610F214FF0FF3085
:100F700001F006F900204FF0E021886107200861A8
:100F8000002070BD30B502460B4600BF92F83C0011
:100F9000012801D1022030BD012082F83C0000BFB1
:100FA000022082F83D00106844681068816824F0CF
:100FB00070041868044310684460104D1068A8421B
:100FC0000BD01068B0F1804F07D00D4D1068A842CB
:100FD00003D00C4D1068A84205D121F0800158685B
:100FE000014310688160012082F83D0000BF0020AD
:100FF00082F83C0000BF00BFCDE70000002C01409C
:10100000000400400008004010B504460CB901205F
:1010100010BD94F83D0028B9002084F83C0020461B
:1010200000F026F8022084F83D00211D206800F021
:10103000ADFD012084F8460000BF84F83E00012188
:101040003F200155402001554120015500BF00BF00
:10105000012084F8420043200155442001554520D9
:10106000015500BF012084F83D000020D0E70000BA
:1010700008B5094A016891420DD100BF0749C96905
:1010800041F00401054AD1611146C96901F004012A
:10109000009100BF00BF08BD0008004000100240E2
:1010A0002DE9F04104460D46002700BF94F83C00AE
:1010B000012802D10220BDE8F081012084F83C0023
:1010C00000BF022084F83D002068866826F077067D
:1010D00026F47F46206886602868502833D00CDCD0
:1010E000202850D004DC00284BD0102851D149E0F2
:1010F000302849D040284CD139E060282DD07028C4
:1011000007D0B0F5805F03D0B0F5005F41D10DE0AE
:1011100041E0D5E902136A68206800F082FD20688A
:10112000866846F077062068866034E0D5E90213C9
:101130006A68206800F075FD2068806840F480408F
:101140002168886027E0EA686968206800F03AFE54
:101150005021206800F070FD1DE0EA686968206891
:1011600000F043FE6021206800F066FD13E0EA68AD
:101170006968206800F026FE4021206800F05CFDD0
:1011800009E000BF00BF00BF2968206800F054FDDF
:1011900001E0012700BF00BF012084F83D0000BF2F
:1011A000002084F83C0000BF384684E710B586B0C4
:1011B0000446002002900390049005900E49206898
:1011C000884216D100BF0D48806940F008000B49E5
:1011D00088610846806900F00800019000BF00BFE8
:1011E0008815029002200390059002A90448FFF799
:1011F000EBF806B010BD00000008004000100240EF
:10120000000C01402DE9F04104460D46164600272A
:1012100000BF94F83C00012802D10220BDE8F08113
:10122000012084F83C0000BF36B1042E1BD0082EEC
:1012300031D00C2E5ED145E02946206800F006FD35
:101240002068806940F00800216888612068806912
:1012500020F00400216888612068806929690843BA
:101260002168886148E02946206800F01FFD206859
:10127000806940F40060216888612068806920F4FA
:1012800080602168886120688069296940EA0120BE
:101290002168886130E02946206800F03BFD206825
:1012A000C06940F008002168C8612068C06920F06A
:1012B00004002168C8612068C06929690843216861
:1012C000C86119E02946206800F058FD2068C0690F
:1012D00040F400602168C8612068C06920F4806023
:1012E0002168C8612068C069296940EA0120216835
:1012F000C86101E0012700BF00BF00BF002084F8E3
:101300003C0000BF384689E710B504460CB90120FF
:1013100010BD94F83D0028B9002084F83C00204618
:1013200000F025F8022084F83D00211D206800F01F
:101330002DFC012084F8460000BF84F83E00012106
:101340003F200155402001554120015500BF00BFFD
:10135000012084F8420043200155442001554520D6
:10136000015500BF012084F83D000020D0E7704700
:1013700070B504460D4615B994F83E000BE0042DF7
:1013800002D13F20005D06E0082D02D14020005D23
:1013900001E04120005D012801D0012070BD1DB990
:1013A000022084F83E000EE0042D03D102213F20EC
:1013B000015508E0082D03D102214020015502E02B
:1013C00002214120015501222946206800F018FC25
:1013D00019492068884201D1012000E0002028B18D
:1013E0002068406C40F4004021684864124920683D
:1013F00088420BD02068B0F1804F07D00F49206899
:10140000884203D00E49206888420CD12068806849
:1014100000F00706062E0CD02068006840F001009E
:101420002168086005E02068006840F0010021683C
:1014300008600020B2E70000002C014000040040DA
:1014400000080040704770472DE9F84F04462068B7
:1014500005682068C668206847694FF00009CA46D9
:1014600005F00F09B9F1000F0AD105F0200038B1DD
:1014700006F0200020B1204600F01BFDBDE8F88FEB
:10148000B9F1000F7BD007F0010018B906F4907095
:10149000002874D005F0010030B106F4807018B156
:1014A000606C40F00100606405F0040030B107F0AA
:1014B000010018B1606C40F00200606405F00200A9
:1014C00030B107F0010018B1606C40F004006064B6
:1014D00005F0080048B106F0200010B907F001003F
:1014E00018B1606C40F008006064606C002845D062
:1014F00005F0200028B106F0200010B1204600F0D1
:10150000D8FC20684069C0F3801A606C00F00800C5
:1015100010B9BAF1000F2CD0204600F084FC2068EE
:10152000406900F0400000B300BF00BF21681431E3
:1015300051E8001F21F040002168143141E8000209
:10154000002AF3D100BFE06B50B17748E16B4863EC
:10155000E06BFEF7CDFE88B1E06B416B88470DE094
:101560002046FFF770FF09E009E02046FFF76BFF18
:1015700004E02046FFF767FF002060647EE7206BF1
:10158000012877D105F01000002873D006F0100074
:101590000028FAD000BF002000902068006800906A
:1015A00020684068009000BF00BF2068406900F0DC
:1015B000400000285FD0E06B006840681FFA80F8A8
:1015C000B8F1000F55D0A08D404552DDA4F82E8013
:1015D000E06B8069202843D000BF00BF21680C3138
:1015E00051E8001F21F4807021680C3141E80002AD
:1015F000002AF3D100BF00BF00BF2168143151E8B9
:10160000001F21F001002168143141E80002002A86
:10161000F3D100BF00BF00BF2168143151E8001FA3
:1016200021F040002168143141E80002002AF3D182
:1016300000BF202084F842000020206300BF00BFCC
:1016400021680C3151E8001F21F0100021680C3195
:1016500041E80002002AF3D100BFE06BFEF71DFE57
:1016600002206063A08DE28D801A81B22046FFF7D0
:10167000E9FE03E742E0A08DE18D401A1FFA80F8F1
:10168000E08DD0B3B8F1000F37D000BF00BF2168A4
:101690000C3151E8001F21F4907021680C3141E8B1
:1016A0000002002AF3D100BF00BF00BF216814313F
:1016B00051E8001F21F001002168143141E80002C7
:1016C000002AF3D100BF202084F8420000202063CC
:1016D00000BF00BF21680C3151E8001F21F010004D
:1016E00021680C3141E80002002AF3D100BF02203A
:1016F000606341462046FFF7A5FEBFE605F0800087
:1017000030B106F0800018B1204600F0EFFCB5E6DD
:1017100005F0400030B106F0400018B1204600F05E
:10172000B8FBABE600BFA9E6131E000810B50446DF
:101730000CB9012010BDA06900B100E000BF94F811
:10174000410028B9002084F84000204600F02AF823
:10175000242084F841002068C06820F400502168EB
:10176000C860204600F024FC2068006920F4904006
:10177000216808612068406920F02A0021684861DA
:101780002068C06840F400502168C8600020606490
:10179000202084F8410084F842000020606300BFEC
:1017A000C8E7000010B586B0044600200290039000
:1017B000049005903B492068884237D100BF3A48E1
:1017C000806940F48040384988610846806900F4A7
:1017D0008040019000BF00BF00BF0846806940F014
:1017E000040088610846806900F00400019000BF91
:1017F00000BF48150290022003900320059002A923
:101800002A48FEF7E1FD4FF480600290002003902B
:10181000049002A92548FEF7D7FD00221146252095
:10182000FEF7EEFF2520FEF7DBFF39E020492068B8
:10183000884235D100BF1C48C06940F400301A49C5
:10184000C8610846C06900F40030019000BF00BFC5
:1018500000BF0846806940F004008861084680693E
:1018600000F00400019000BF00BF0420029002209D
:1018700003900320059002A90C48FEF7A5FD08205F
:10188000029000200390049002A90848FEF79CFDF6
:10189000002211462620FEF7B3FF2620FEF7A0FF08
:1018A00006B010BD003801400010024000080140A1
:1018B0000044004070B504460D46164694F84200B8
:1018C00020280BD105B10EB9012070BD0020206386
:1018D00032462946204600F0E9FBF6E70220F4E70D
:1018E0007047000010B504460B48844213D1012212
:1018F0000A49FFF7DFFF09480078312806D10022A6
:101900004FF400510648FEF7EFFE04E001225103B8
:101910000348FEF7E9FE10BD600000200000002033
:101920000010014000BFFEE700B585B00020019027
:1019300002900390049000BF2348806940F010009B
:10194000214988610846806900F01000009000BFBE
:1019500000BF00BF0846806940F02000886108464B
:10196000806900F02000009000BF00BF00BF084663
:10197000806940F0040088610846806900F0040036
:10198000009000BF00BF00BF0846806940F008001B
:1019900088610846806900F00800009000BF00BF21
:1019A000012251030948FEF79FFE4FF400500190B9
:1019B00001200290002003900220049001A9034816
:1019C000FEF702FD05B000BD00100240001001400E
:1019D00000B58DB0002009900A900B900C900790F4
:1019E00008901C216846FEF7EFFB2048204908605C
:1019F00040F2CF20486000211D48816040F2CF7145
:101A0000C160002101618161FFF7FEFA08B1FEF7B4
:101A100041FC4FF48050099009A91548FFF740FB9D
:101A200008B1FEF737FC1248FFF76EFC08B1FEF76D
:101A300031FC00200790089007A90D48FFF7A2FA93
:101A400008B1FEF727FC6020009000200190029072
:101A50000490082269460648FFF7D4FB08B1FEF758
:101A600019FC0348FFF7A2FB0DB000BD00080040C1
:101A70001800002010B50B480B4908604FF4E13006
:101A80004860002108488160C16001610C2141610A
:101A900000218161C161FFF749FE08B1FEF7FAFB41
:101AA00010BD0000003801406000002010B50B4858
:101AB0000B4908604FF4E13048600021084881601C
:101AC000C16001610C21416100218161C161FFF7A9
:101AD0002DFE08B1FEF7DEFB10BD00000044004003
:101AE000A800002000BFFEE700BFFEE7704700002F
:101AF00008B508490968C9084FF47A72B1FBF2F1D8
:101B00004143009100BF00BF00994A1E0092002986
:101B1000F9D108BD14000020704710B5FEF7F0FDA4
:101B200010BD00B58FB0282105A8FEF74DFB14218C
:101B30006846FEF749FB012005900004069000204E
:101B400007900120099002200C90C1030D914FF4E1
:101B5000E0110E9105A8FEF7C9FF08B1FEF79AFB48
:101B60000F20009002200190002002904FF480602E
:101B700003900020049002216846FEF793FE08B10E
:101B8000FEF788FB0FB000BD7047000010B502687B
:101B9000184B984208D0B0F1804F05D0164B9842B0
:101BA00002D0164B984203D122F070024B681A43C0
:101BB000104B984208D0B0F1804F05D00E4B9842A0
:101BC00002D00E4B984203D122F44072CB681A43E4
:101BD00022F080034C6943EA040202608B68C3620E
:101BE0000B688362034B984201D10B6903630123A5
:101BF000436110BD002C014000040040000800407B
:101C000030B501F01F05012404FA05F3046A9C4372
:101C10000462046A01F01F0502FA05F52C43046210
:101C200030BD30B50C46816821F47F4142EA03257E
:101C300025432943816030BD0A46816821F0700147
:101C400042F00703194381607047000030B5026A13
:101C5000056A25F0010505624368846924F0700473
:101C600024F003040D682C4322F002028D682A43FD
:101C70000D4DA84206D100BF22F00802CD682A43CC
:101C800022F00402084DA84207D123F4807323F404
:101C900000734D692B438D692B43436084614D680C
:101CA0004563026230BD0000002C014030B5026A7D
:101CB000056A25F0100505624368846924F4E04450
:101CC00024F440740D6844EA052422F020028D6853
:101CD00042EA05120E4DA84207D100BF22F0800251
:101CE000CD6842EA051222F04002094DA84209D10E
:101CF00023F4806323F400634D6943EA85038D690F
:101D000043EA8503436084614D688563026230BDA8
:101D1000002C014030B5026A056A25F48075056221
:101D20004368C46924F0700424F003040D682C4354
:101D300022F400728D6842EA05220F4DA84207D1B5
:101D400000BF22F40062CD6842EA052222F48062DC
:101D5000094DA84209D123F4805323F400534D695F
:101D600043EA05138D6943EA05134360C4614D6876
:101D7000C563026230BD0000002C014030B5036A2B
:101D8000056A25F4805505624468C26922F4E04280
:101D900022F440720D6842EA052223F400538D6854
:101DA00043EA0533064DA84204D124F480444D692A
:101DB00044EA85144460C2614D680564036230BD25
:101DC000002C014030B50B461446026A056A25F026
:101DD00001050562816921F0F00141EA041122F058
:101DE0000A021A438161026230BD30B50B461446C7
:101DF000026A056A25F010050562816921F47041C7
:101E000041EA043122F0A00242EA03128161026237
:101E100030BD70B505466C6A0020E085E084204640
:101E2000FFF711FB70BD00BF00BF02680C3252E823
:101E3000002F22F4907102680C3242E80013002B4C
:101E4000F3D100BF00BF00BF0268143252E8002F78
:101E500022F001010268143242E80013002BF3D192
:101E600000BF016B01290ED100BF00BF02680C3218
:101E700052E8002F22F0100102680C3242E80013F1
:101E8000002BF3D100BF202180F842100021016314
:101E9000704710B504462068C06820F040002168F3
:101EA000C860202084F841002046FFF71BFD002079
:101EB00010BDF8B5044694F84200222875D1A068F8
:101EC000B0F5805F0CD1206950B90025A66A206862
:101ED0004068C0F308003080A06A801CA06215E052
:101EE000A56A0026A068B0F5805F03D0A06828B975
:101EF000206918B920684068287004E020684068AC
:101F000000F07F002870A06A401CA062E08D401E97
:101F100080B2E085002846D12068C06820F020000B
:101F20002168C8602068C06820F480702168C8609B
:101F30002068406920F0010021684861202084F871
:101F4000420000206063206B012826D1002020631E
:101F500000BF00BF21680C3151E8001F21F01000C4
:101F600021680C3141E80002002AF3D100BF20684B
:101F7000006800F0100010280AD100BF0020009077
:101F800020680068009020684068009000BF00BF93
:101F9000A18D2046FFF756FA02E02046FFF7A0FC8D
:101FA0000020F8BD01E00020FBE70220F9E7000077
:101FB00070B504462168096921F44051E268114373
:101FC000226811612269A1681143626941EA020530
:101FD0002168C96841F20C62914329432268D160AB
:101FE0002168496921F44071A26911432268516155
:101FF0002D4A2168914202D1FEF730FD01E0FEF743
:102000001DFD00EBC00101EB001162689200B1FB05
:10201000F2F100EBC00202EB001263689B00B2FB1E
:10202000F3F26423B2FBF3F202EBC20303EB0212FE
:10203000A1EB8201322202EB01116422B1FBF2F129
:1020400001F0F00100EBC00202EB001263689B009C
:10205000B2FBF3F26423B2FBF3F201EB021200EBEA
:10206000C00101EB001163689B00B1FBF3F100EBD1
:10207000C00303EB00136668B600B3FBF6F36426F7
:10208000B3FBF6F303EBC30606EB0313A1EB8301EB
:10209000322303EB01116423B1FBF3F101F00F01D3
:1020A00011442268916070BD0038014010B50346AC
:1020B00099629A85DA8500205864222083F84200CC
:1020C000186928B11868C06840F480701C68E06026
:1020D0001868406940F001001C6860611868C068B9
:1020E00040F020001C68E060002010BD014691F81F
:1020F0004100212828D18868B0F5805F0BD108699C
:1021000048B90A6A1088C0F308000B685860086A6A
:10211000801C086205E00B6A581C086218780B687E
:102120005860C88C401E80B2C88458B90868C0681E
:1021300020F080000B68D8600868C06840F040005C
:102140000B68D860002070470220FCE710B50248F9
:10215000FFF77AF910BD00006000002010B50248BA
:10216000FFF772F910BD0000A800002000BFFEE7D5
:1021700002480068C0F30220704700000CED00E048
:1021800010B5002804DB0A07130E054A135406E0B5
:102190000A07140E034A00F00F031B1FD45410BD8E
:1021A00000E400E018ED00E0FEF7B6FAFFF7B9FC36
:1021B000FFF7BAFBFFF70CFCFFF75CFCFFF776FCC0
:1021C00008210C48FFF7D4F801220B490B48FFF710
:1021D00071FB0EE0322007490968C8634FF47A703A
:1021E000FEF7DEF8FA2003490968C8638000FEF7AD
:1021F000D7F8EFE718000020000000206000002062
:1022000002030405060708090A0B0C0D0E0F101037
:1022100001020000000000000000010203040607A4
:102220000809000000000102030400004C2200081D
:1022300000000020180000002801000864220008A7
:10224000180000203807000044010008316E69685A
:10225000616F00000000000010000000010000009D
:042260000024F40062
:04000005080000ED02
:00000001FF
