:020000040800F2
:100000000809002029020008B524000895230008EB
:10001000B12400081F040008212C00080000000083
:10002000000000000000000000000000FD240008A7
:100030004B06000800000000FB240008FF24000815
:10004000430200084302000843020008430200087C
:10005000430200084302000843020008430200086C
:10006000430200084302000843020008430200085C
:10007000310500084302000843020008430200085B
:10008000430200084302000843020008430200083C
:100090002504000835040008430200084302000854
:1000A000430200084302000843020008430200081C
:1000B000430200084302000843020008430200080C
:1000C00043020008430200084302000843020008FC
:1000D000430200084302000843020008112C0008F4
:1000E00043020008430200084302000843020008DC
:1000F00043020008430200084302000843020008CC
:1001000043020008430200084302000843020008BB
:1001100043020008430200084302000843020008AB
:10012000430200084302000843020008430200089B
:10013000430200084302000843020008430200088B
:10014000430200084302000843020008430200087B
:10015000430200084302000843020008430200086B
:10016000430200084302000843020008430200085B
:100170004302000843020008430200080000000098
:10018000430200084302000800F002F800F03CF8C7
:100190000AA090E8000C82448344AAF10107DA45E2
:1001A00001D100F031F8AFF2090EBAE80F0013F0F8
:1001B000010F18BFFB1A43F001031847BC2B0000C6
:1001C000DC2B0000103A24BF78C878C1FAD8520757
:1001D00024BF30C830C144BF04680C6070470000C1
:1001E0000023002400250026103A28BF78C1FBD840
:1001F000520728BF30C148BF0B6070471FB502F0DF
:10020000A5FD1FBD10B510BD00F0CFF81146FFF7DA
:10021000F5FF02F043FD00F0EDF803B4FFF7F2FF45
:1002200003BC00F0F5F80000094880470948004782
:10023000FEE7FEE7FEE7FEE7FEE7FEE7FEE7FEE796
:10024000FEE7FEE704480549054A064B70470000F3
:10025000C1250008890100080803002008090020C2
:10026000080500200805002053EA020C00F0698010
:100270002DE9F04B4FF00006002B1FBFB3FA83F5BA
:1002800003FA05F424FA05F65E4012BF1643B2FAEB
:1002900082F502FA05F4C5F120051EBF22FA05FC1D
:1002A00044EA0C04203556EA044C4FEA144418BFC3
:1002B000641C4FF000084FF00009904271EB030CF2
:1002C00039D3002919BFB1FA81F701FA07F6B0FA5C
:1002D00080F700FA07F6C7F120071EBF20FA07FCD7
:1002E00046EA0C062037B6FBF4FCA7EB0507103FE7
:1002F00007F01F0BCBF120060CFA0BFB2CFA06F6CD
:1003000044BFB3460026202FA4BF5E464FF0000B2B
:100310005BEA060C08BF4FF0010B19EB0B09ABFBB6
:10032000027C48EB0608C01B06FB02CC0BFB03CC8F
:1003300071EB0C01C1E70B46024641464846BDE859
:10034000F08B13B54FF000004FF00001AFF30080C9
:10035000BDE81C4070474FF0000200B513469446BC
:100360009646203922BFA0E80C50A0E80C50B1F10D
:100370002001BFF4F7AF090728BFA0E80C5048BF21
:100380000CC05DF804EB890028BF40F8042B08BFBF
:10039000704748BF20F8022B11F0804F18BF00F8BB
:1003A000012B7047704770477047754600F02CF876
:1003B000AE4605006946534620F00700854618B052
:1003C00020B5FFF73FFFBDE820404FF000064FF09B
:1003D00000074FF000084FF0000B21F00701AC467A
:1003E000ACE8C009ACE8C009ACE8C009ACE8C00999
:1003F0008D46704710B50446AFF300802046BDE837
:100400001040FFF70ABF000000487047A402002018
:1004100001491820ABBEFEE726000200704700BF6E
:10042000FEE7000010B5024800F078FA10BD0000A9
:10043000D801002010B5024800F070FA10BD00008D
:10044000D8010020F0B58BB007460C4615461E4675
:1004500004F0020080B1E8040190E80004F0030118
:1004600040EA41000290F0040390F00004F0030120
:1004700040EA410004900FE068010190E80004F0B8
:10048000030140EA4100029070010390F00004F083
:10049000030140EA41000490E0100690C4F380009C
:1004A00005900120099000200790012008900E205F
:1004B0000A9001A9384600F0E1F80BB0F0BD000049
:1004C00010B50446204600F0B6FC2068406940F0B4
:1004D0000200216848612068406940F010002168EE
:1004E00048611149206888420CD100231A461946F8
:1004F0002046FFF7A7FF00231A460C212046FFF7EE
:10050000A1FF0FE00949206888420BD100231A4659
:1005100070212046FFF796FF00231A467C212046D3
:10052000FFF790FF10BD000000640040006800402D
:1005300010B5024800F020FD10BD0000440200206C
:100540000146087810381823B0FBF3F20848805CA5
:10055000C865032A05D908686FF30900001D88657E
:1005600003E008686FF309008865886D7047000034
:10057000562D0008014600208A6A8B69CBB932B13A
:10058000012A0DD0022A03D0032A10D10EE000BFA9
:10059000CB6A03F08073B3F1807F00D1012007E0C4
:1005A000CB6AB3F1C07F00D1012001E000E000BFC1
:1005B00034E08B69B3F5005F1AD132B1012A07D05C
:1005C000022A03D0032A11D10AE000BF01200EE065
:1005D000CB6A03F08073B3F1807F00D1012006E085
:1005E000CB6AB3F1C07F00D1012000E000BF15E06D
:1005F00032B1012A05D0022A04D0032A0CD103E02B
:1006000000BF00BF012008E0CB6A03F08073B3F1A4
:10061000807F00D1012000E000BF00BF704730B5EF
:100620000468246824F4802405682C6004686360EE
:100630008468402C04D10468A2600468E16003E08F
:100640000468A1600468E26030BD704772B600BF04
:10065000FEE710B5024692F82030012B01D0022BA4
:1006600006D110684069084314686061002010BD1D
:10067000506A40F4802050620120F8E7F0B504464B
:100680000A46216894F82050012D01D0022D7ED118
:10069000424901F50071086840F0010008600868EF
:1006A00020F47C5008600868566A40EA062008601A
:1006B000107D00F01F06012000FA06F3C869984378
:1006C000C861A1F50071D069C8B9D1F80C0298438E
:1006D000C1F80C02908880B2968940EA064601F57E
:1006E0001070576940F83760108880B2168940EA68
:1006F000064601F51070576900EBC7004660D069E7
:10070000012819D1D1F80C021843C1F80C029088C5
:1007100080B2168840EA064601F51070576940F825
:100720003760908980B2168940EA064601F510705C
:10073000576900EBC7004660906928B9D1F80402F8
:100740009843C1F8040204E0D1F804021843C1F848
:100750000402106928B9D1F814029843C1F81402B0
:1007600004E0D1F814021843C1F81402106A0128F9
:1007700004D1D1F81C021843C1F81C02D1F80002C0
:1007800020F00100C1F800020020F0BDFFE7606A20
:1007900040F4802060620120F7E700000064004020
:1007A000704770B5044694F82050012D01D0022DF9
:1007B0007DD151B92068C06800F0030080B9606A3B
:1007C00040F400106062012070BD2068006900F0F4
:1007D000030028B9606A40F4001060620120F3E76A
:1007E000206800F5D87000EB0110006800F00400EC
:1007F0009060906840B9206800F5D87000EB011057
:100800000068400D106007E0206800F5D87000EB2C
:1008100001100068C0085060206800F5D87000EB37
:100820000110006800F00200D060206800F5D87068
:1008300000EB0110406800F00F001061206800F527
:10084000D87000EB0110406800F47F40000A90610E
:10085000206800F5D87000EB01104068000C506172
:10086000206800F5D87000EB0110806818702068CF
:1008700000F5D87000EB0110806800F47F40000A9A
:100880005870206800F5D87000EB0110806800F403
:100890007F00000C9870206800F5D87000EB011004
:1008A0008068000ED870206800F5D87000E02FE056
:1008B00000EB0110C0681871206800F5D87000EBDB
:1008C0000110C06800F47F40000A5871206800F5EC
:1008D000D87000EB0110C06800F47F00000C987124
:1008E000206800F5D87000EB0110C068000ED871C8
:1008F00031B92068C06840F020002668F06005E04B
:100900002068006940F020002668306100205BE725
:10091000606A40F480206062012055E72DE9F05FB5
:1009200004460025206846692068D0F804902068B5
:1009300087682068D0F80CA02068D0F810B0206834
:10094000D0F8188006F00100002855D007F001000B
:10095000C0B101202168886007F0020018B120466C
:1009600000F099FA0EE007F0040010B145F40065BC
:1009700008E007F0080010B145F4805502E0204679
:1009800000F088FA07F48070C8B14FF480702168D5
:10099000886007F4007018B1204600F07EFA0EE07F
:1009A00007F4806010B145F4005508E007F40060DA
:1009B00010B145F4804502E0204600F06DFA07F4DE
:1009C0008030C8B14FF480302168886007F400306F
:1009D00018B1204600F063FA0EE007F4802010B151
:1009E00045F4004508E007F4002010B145F48035D7
:1009F00002E0204600F052FA06F0080038B10AF092
:100A0000100020B145F4007510202168C86006F080
:100A1000040040B10AF0080028B108202168C8602D
:100A2000204600F0B1F906F0020038B12068C06835
:100A300000F0030010B1204600F0A8F906F04000D5
:100A400038B10BF0100020B145F48065102021680A
:100A5000086106F0200040B10BF0080028B1082022
:100A600021680861204600F0E3F906F0100038B173
:100A70002068006900F0030010B1204600F0D9F9A9
:100A800006F4003040B109F0100028B110202168B0
:100A90004860204600F0CEF906F4803040B109F0FD
:100AA000080028B1082021684860204600F0F8F9C5
:100AB00006F4004088B309F0040078B306F48070AF
:100AC00020B108F0010008B145F0010506F40070FE
:100AD00020B108F0020008B145F0020506F480607C
:100AE00020B108F0040008B145F0040506F40060E8
:100AF000A0B108F0700088B108F07000402817D04D
:100B000006DC10280BD020280CD0302819D10CE09E
:100B1000502810D0602814D110E01DE019E045F0F5
:100B200008050FE045F010050CE045F0200509E050
:100B300045F0400506E045F0800503E045F480758A
:100B400000E000BF00BF2068806920F070002168CD
:100B500088610420216848602DB1606A2843606282
:100B60002046FFF71DFEBDE8F09F70B504460CB9A6
:100B7000012070BD94F8200010B9204600F0B0F8B4
:100B80002068006840F001002168086000F0CEFC99
:100B900005460DE000F0CAFC401B0A2808D9606A2F
:100BA00040F400306062052084F820000120E0E776
:100BB0002068406800F001000028EBD02068006841
:100BC00020F002002168086000F0B0FC05460DE04E
:100BD00000F0ACFC401B0A2808D9606A40F40030E1
:100BE0006062052084F820000120C2E72068406888
:100BF00000F002000028EBD1207E012806D12068F9
:100C0000006840F080002168086005E02068006806
:100C100020F0800021680860607E012806D12068ED
:100C2000006840F040002168086005E02068006826
:100C300020F0400021680860A07E012806D12068CD
:100C4000006840F020002168086005E02068006826
:100C500020F0200021680860E07E012806D120688D
:100C6000006820F010002168086005E02068006836
:100C700040F0100021680860207F012806D120681C
:100C8000006840F008002168086005E020680068FE
:100C900020F0080021680860607F012806D12068E4
:100CA000006840F004002168086005E020680068E2
:100CB00020F0040021680860D4E90201084321699A
:100CC0000843616908436168491E08432168C86197
:100CD00000206062012084F82000002049E7000025
:100CE00010B586B00446142101A8FFF734FB234950
:100CF000206888423FD100BF002000902048006853
:100D000040F000701E4908600846006800F000705E
:100D1000009000BF00BF00BF0020009018481038AE
:100D2000006840F00800164910390860084600685D
:100D300000F00800009000BF00BF032001900220D7
:100D4000029000200390032004900920059001A93F
:100D50000C4800F0F1FA00220E21142000F070FC83
:100D6000142000F05DFC00220E21152000F068FC2C
:100D7000152000F055FC06B010BD000000640040D6
:100D800040380240000C02407047000010B58AB0A5
:100D900004462149206888423CD1204B03AA002107
:100DA0002046FFF7FEFC90BB0398A0F2012030B173
:100DB00001280ED0022816D0032829D11DE017499A
:100DC00001A801F04BFF16480199016002994160AA
:100DD0001FE0124901A801F041FF1248019901608A
:100DE0000299416015E00D4901A801F037FF0E4856
:100DF00001990160029941600BE0084901A801F0E6
:100E00002DFF0A48019901600299416001E001E06B
:100E100000BF00BF0AB010BD00640040B801002050
:100E2000140000201C000020240000202C000020C2
:100E300070477047704770B5044694F82000012849
:100E400022D1022084F820002068006820F00100F0
:100E50002168086000F06AFB05460DE000F066FBC3
:100E6000401B0A2808D9606A40F4003060620520FF
:100E700084F82000012070BD2068406800F0010067
:100E80000028EBD16062F6E7606A40F400206062FF
:100E90000120F0E770477047704770477047704710
:100EA000704770B50446A56D00F040FB064694F807
:100EB0003500022808D08020606500BF002084F83B
:100EC000340000BF012070BD2068006820F01600CB
:100ED000216808602068406920F08000216848612E
:100EE000206C08B9A06C28B12068006820F00800C8
:100EF000216808602068006820F00100216808600F
:100F000010E000F013FB801B05280BD92020606542
:100F1000032084F8350000BF002084F8340000BFAF
:100F20000320D0E72068006800F001000028E8D125
:100F300094F85C103F208840A860012084F83500B8
:100F400000BF002084F8340000BF00BFBBE70146AB
:100F500091F83500022803D08020486501207047B1
:100F6000052081F835000868006820F001000A6853
:100F700010600020F3E70000F8B504460020009060
:100F80008C4800684FF41651B0FBF1F7A56D2E6840
:100F900094F85C1008208840304098B120680068C0
:100FA00000F0040070B12068006820F0040021689F
:100FB000086094F85C1008208840A860606D40F0DC
:100FC0000100606594F85C1001208840304068B1F1
:100FD0002068406900F0800040B194F85C10012066
:100FE0008840A860606D40F00200606594F85C1075
:100FF00004208840304068B12068006800F002009A
:1010000040B194F85C1004208840A860606D40F006
:101010000400606594F85C1010208840304078B37C
:101020002068006800F0080050B394F85C101020AD
:101030008840A8602068006800F4802080B12068A3
:10104000006800F4002028B9206CC8B12046216C4B
:10105000884715E0A06C98B12046A16C88470FE046
:101060002068006800F4807028B92068006820F0CB
:10107000080021680860206C10B12046216C884768
:1010800094F85C10202088403040002865D020680B
:10109000006800F0100000285FD094F85C10202059
:1010A0008840A86094F83500052828D12068006899
:1010B00020F01600216808602068406920F0800058
:1010C00021684861206C08B9A06C28B120680068CC
:1010D00020F008002168086094F85C103F208840E8
:1010E000A860012084F8350000BF002084F8340097
:1010F00000BF206D10B12046216D8847F8BD2068E3
:10110000006800F4802080B12068006800F40020AE
:1011100028B9606C10B12046616C88471DE0E06B17
:10112000D8B12046E16B884717E02068006800F4DA
:10113000807068B92068006820F01000216808609D
:10114000012084F8350000BF002084F8340000BF7F
:10115000E06B10B12046E16B8847606D38B3606D7D
:1011600000F00100F0B1052084F835002068006827
:1011700020F001002168086000BF0098401C00902A
:10118000B84200D905E02068006800F0010000289E
:10119000F3D100BF012084F8350000BF002084F89F
:1011A000340000BFE06C10B12046E16C884700BFFE
:1011B000A4E70000400000202DE9F041044600258E
:1011C00000F0B4F9074614B90120BDE8F081606A67
:1011D00000B100BF022084F8350000BF002084F871
:1011E000340000BF2068006820F00100216808601A
:1011F0000AE000F09BF9C01B052805D92020606596
:10120000032084F83500E0E72068006800F0010062
:101210000028EED12068056821480540D4E9010185
:101220000843E16808432169084361690843A169EB
:101230000843E1690843216A08430543606A0428BA
:1012400003D1D4E90B0108430543206805602068F9
:10125000456925F00705606A0543606A04280DD1D9
:10126000A06A0543E06A48B12046FFF783F928B138
:1012700040206065012084F83500A6E720684561BC
:101280002046FFF75DF9064694F85C103F20884041
:10129000B06000206065012084F83500002094E7EC
:1012A0003F8010F02DE9F04704460D4616461F46D4
:1012B0004FF00008D4F8589000BF94F8340001288B
:1012C00002D10220BDE8F087012084F8340000BF7D
:1012D00094F83500012825D1022084F8350000203B
:1012E00060653B46324629462046FFF798F994F858
:1012F0005C103F208840C9F808002068006840F072
:10130000160021680860206C28B12068006840F051
:101310000800216808602068006840F0010021682A
:10132000086006E000BF002084F8340000BF4FF0E2
:1013300002084046C6E70000F8B502460B46002505
:10134000002400200021D6E0012606FA01F51E68DF
:1013500006EA0504AC4274D11E7906F00306012E9C
:1013600004D01E7906F00306022E13D190684F00B8
:101370000326BE40B0434F00DE68BE40304390605D
:10138000506801268E40B0431E79C6F300168E4089
:10139000304350601E7906F00306032E09D0D06852
:1013A0004F000326BE40B0434F009E68BE4030430E
:1013B000D0601E7906F00306022E13D1CF0802F189
:1013C000200656F827004E07F70E0F26BE40B04302
:1013D0004F07FF0E1E69BE403043CF0802F12006C2
:1013E00046F8270010684F000326BE40B0431E7920
:1013F00006F003064F00BE40304310605E6806F4FE
:101400004036002E76D000BF002600963C4E36684F
:1014100046F480463A4F3E603E46366806F48046C3
:10142000009600BF00BF374E8F0856F827008E0782
:10143000370F0F26BE40B043334EB24202D10026D2
:1014400024E057E0314EB24201D101261EE0304E79
:10145000B24201D1022619E02E4EB24201D103263A
:1014600014E02D4EB24201D104260FE02B4EB242C1
:1014700001D105260AE02A4EB24201D1062605E036
:10148000284EB24201D1072600E008268F073F0F01
:10149000BE4030431B4E8F0846F82700224E30686E
:1014A000A0435E6806F4801606B120431E4E3060ED
:1014B000361D3068A0435E6806F4001606B120436E
:1014C000194E361D3060184E361F3068A0435E68D6
:1014D00006F4003606B12043134E361F3060361F27
:1014E0003068A0435E6806F4803606B120430E4E95
:1014F000083E3060491C1029FFF426AFF8BD0000FB
:101500004438024008380140000002400004024014
:1015100000080240000C024000100240001402408B
:1015200000180240001C0240083C014001480068CD
:101530007047000034000020034800680349097820
:101540000844014908607047340000203C00002036
:1015500010B50D48006840F400700B49086008465B
:10156000006840F4806008600846006840F48070BD
:101570000860032000F0A2F80F2000F007F800F048
:101580002BF8002010BD0000003C024070B504465E
:101590000E4800784FF47A71B1FBF0F00C490968FD
:1015A000B1FBF0F5284600F02BFC08B1012070BD1E
:1015B000102C07D200222146501E00F041F80548A9
:1015C000046001E00120F2E70020F0E73C00002089
:1015D000400000203800002008B500BF0020009027
:1015E0000E48006840F480400C49086008460068D6
:1015F00000F48040009000BF00BF00BF00200090BA
:10160000081F006840F08050091F08600846006805
:1016100000F08050009000BF00BF08BD4438024079
:1016200001460846002809DB00F01F0301229A400A
:1016300043099B0003F1E023C3F8002100BF70477A
:101640002DE9F05F80460D461646002701F0EAFAC4
:10165000074639462A46334601F00700C0F1070A1B
:10166000BAF1040F02D94FF0040A01E0C0F1070AF1
:10167000D14600F1040ABAF1070F02D24FF0000A76
:1016800001E0A0F1030AD4464FF0010A0AFA09FA70
:10169000AAF1010A0AEA020A0AFA0CFA4FF0010B4F
:1016A0000BFA0CFBABF1010B0BEA030B4AEA0B0440
:1016B0002146404601F0BEFABDE8F09F00BF00F0B1
:1016C0000702064B19684FF6FF031940044B0B4302
:1016D00043EA0221014B196000BF70470CED00E0A6
:1016E0000000FA0570B504460D460CB9012070BD26
:1016F0005848006800F00700A84209D255490D700B
:101700000846006800F00700A84201D00120EEE77B
:10171000207800F0020002281DD1207800F004009B
:10172000042805D14C48006840F4E0504A4908605C
:10173000207800F00800082805D14748006840F4E8
:101740006040454908604448006820F0F000A16806
:10175000084341490860207800F00100A8B36068A0
:10176000012807D13C4808380068C0F34040B8B9A8
:101770000120BCE76068022802D06068032807D116
:10178000354808380068C0F3406048B90120AEE72A
:10179000314808380068C0F3400008B90120A6E7C6
:1017A0002D48006820F00300616808432A4908605A
:1017B000FFF7BCFE064609E0FFF7B8FE801B41F2CA
:1017C0008831884202D9032091E707E02248006867
:1017D00000F00C006168B0EB810FEDD11D4800688E
:1017E00000F00700A84209D91A490D7008460068A0
:1017F00000F00700A84201D0012078E7207800F02F
:101800000400042807D11448006820F4E050E1687F
:10181000084311490860207800F00800082808D122
:101820000D48006820F46040216940EAC1000A497F
:10183000086000F03FF808490968C1F30311074A3E
:10184000515CC8400649086006480068FFF79EFEE4
:1018500000204CE7003C0240083802405E2D0008A2
:101860004000002038000020014800687047000058
:101870004000002000B5FFF7F7FF04490968C1F3F5
:101880008221034A515CC84000BD00000838024074
:101890006E2D000800B5FFF7E7FF04490968C1F3A2
:1018A0004231034A515CC84000BD00000838024084
:1018B0006E2D00082DE9F047002400250026A146E2
:1018C0002548006800F00C0020B1042805D0082845
:1018D0003AD105E0DFF8849039E0DFF8849036E013
:1018E0001D48001F006800F03F041B48001F0068EF
:1018F00000F4800078B11A481749091F0968C1F33C
:101900008811A0FB01700146224600233846FEF7ED
:10191000ABFC05460EE011480F49091F0968C1F3E9
:101920008811A0FB01700146224600233846FEF7CD
:101930009BFC05460848001F0068C0F30140401C9E
:101940004600B5FBF6F902E0DFF8109000BF00BFDB
:101950004846BDE8F0870000083802400024F40043
:10196000001BB700F8B504460CB90120F8BD20787B
:1019700000F00100002874D0F948006800F00C0065
:1019800004280DD0F648006800F00C00082813D198
:10199000F348001F006800F48000B0F5800F0BD101
:1019A000EF4808380068C0F34040002859D060680C
:1019B000002856D10120D9E700BF6068B0F5803F0C
:1019C00008D1E7480838006840F48030E449083915
:1019D00008601EE06068B0F5A02F0DD1E04808381F
:1019E000006840F48020DE49083908600846006835
:1019F00040F4803008600CE0D9480838006820F4D2
:101A00008030D749083908600846006820F48020F3
:101A1000086000BF606890B1FFF788FD054606E0EA
:101A2000FFF784FD401B642801D903209EE7CC48C2
:101A300008380068C0F340400028F1D011E0FFF7FB
:101A400075FD054606E0FFF771FD401B642801D9CE
:101A500003208BE7C24808380068C0F340400028E4
:101A6000F1D1207800F0020002285FD1BC48006864
:101A700000F00C0058B1BA48006800F00C000828CB
:101A80001CD1B748001F006800F48000B0B9B4480A
:101A900008380068C0F3400020B1E068012801D098
:101AA000012063E7AE480838006820F0F80021699B
:101AB00040EAC100AA490839086037E0E06800B38D
:101AC0000120A8490860FFF731FD054606E0FFF751
:101AD0002DFD401B022801D9032047E7A048083804
:101AE0000068C0F340000028F1D09D480838006825
:101AF00020F0F800216940EAC100994908390860DE
:101B000014E0002097490860FFF710FD054606E045
:101B1000FFF70CFD401B022801D9032026E790485F
:101B200008380068C0F340000028F1D1207800F0A8
:101B3000080008282CD16069A8B101208A490860F2
:101B4000FFF7F4FC054606E0FFF7F0FC401B022817
:101B500001D903200AE782486C300068C0F34000D6
:101B60000028F1D014E000207F490860FFF7DEFC78
:101B7000054606E0FFF7DAFC401B022801D90320E6
:101B8000F4E677486C300068C0F340000028F1D1DB
:101B9000207800F00400042870D100277048383005
:101BA000006800F0805090B900BF002000906C48A1
:101BB0003830006840F08050694938310860084684
:101BC000006800F08050009000BF00BF0127674808
:101BD000006800F48070B0B96448006840F4807018
:101BE00062490860FFF7A2FC054606E0FFF79EFC8D
:101BF000401B022801D90320B8E65C48006800F4C5
:101C000080700028F2D000BFA068012808D1544895
:101C10006830006840F001005149683108601DE0FB
:101C2000A06805280DD14E486830006840F00400D7
:101C30004B49683108600846006840F001000860C0
:101C40000CE047486830006820F0010044496831E2
:101C500008600846006820F00400086000BFA06823
:101C6000A8B1FFF763FC054609E0FFF75FFC401BE6
:101C700041F28831884202D9032077E626E03848CD
:101C800068300068C0F340000028EED013E0FFF792
:101C90004DFC054608E0FFF749FC401B41F2883146
:101CA000884201D9032061E62D4868300068C0F3FE
:101CB00040000028EFD1012F07D1294838300068B3
:101CC00020F0805026493831086000BFA069002804
:101CD00045D02348006800F00C0008285DD0A069BA
:101CE000022845D100201F490866FFF71FFC054662
:101CF00006E0FFF71BFC401B022801D9032035E654
:101D0000174808380068C0F340600028F1D1D4E9D2
:101D100007010843616A40EA81110122A06AC2EB0F
:101D2000500041EA00412C20005D41EA00600C496E
:101D3000091F086001200B490866FFF7F7FB0546FD
:101D400006E0FFF7F3FB401B022801D903200DE654
:101D5000034808380068C0F340600028F1D049E02B
:101D60000838024000004742800E474200700040A1
:101D7000002021490866FFF7D9FB054606E0FFF77A
:101D8000D5FB401B022801D90320EFE51B48006862
:101D9000C0F340600028F2D12CE0A069012800D1F6
:101DA000E4E51648001D0668A069012820D006F465
:101DB0008001E06981421BD106F03F01206A814227
:101DC00016D147F6C0703040616AB0EB811F0FD169
:101DD00006F440310122A06AC2EB5000B1EB004F83
:101DE00006D106F070612C20005DB1EB006F01D0D0
:101DF0000120BBE50020B9E5000047420038024061
:101E000070B504462546681EB0F1807F01D30120DD
:101E10000FE0681E4FF0E02148610F214FF0FF30C6
:101E200000F008FF00204FF0E021886107200861E2
:101E3000002070BD704770472DE9F84F04462068B8
:101E400005682068C668206847694FF00009CA46DF
:101E500005F00F09B9F1000F0AD105F0200038B1E3
:101E600006F0200020B1204600F0A7FCBDE8F88F66
:101E7000B9F1000F7CD007F0010018B906F490709A
:101E8000002875D005F0010030B106F4807018B15B
:101E9000206C40F00100206405F0040030B107F030
:101EA000010018B1206C40F00200206405F002002F
:101EB00030B107F0010018B1206C40F0040020643C
:101EC00005F0080048B106F0200010B907F0010045
:101ED00018B1206C40F008002064206C002846D027
:101EE00005F0200028B106F0200010B1204600F0D7
:101EF00064FC20684069C0F3801A206C00F0080080
:101F000010B9BAF1000F2DD0204600F0FDFB20687B
:101F1000406900F04000402820D100BF00BF216888
:101F2000143151E8001F21F040002168143141E8CC
:101F30000002002AF3D100BFA06B50B17548A16B1D
:101F40000865A06BFFF703F888B1A06B016D8847A7
:101F50000DE02046FFF76FFF09E009E02046FFF79C
:101F60006AFF04E02046FFF766FF002020647DE75B
:101F7000206B012876D105F01000002872D006F001
:101F800010000028FAD000BF0020009020680068F0
:101F9000009020684068009000BF00BF2068406942
:101FA00000F0400040285ED1A06B006840681FFA36
:101FB00080F8B8F1000F54D0A08D404551DDA4F851
:101FC0002E80A06BC069B0F5807F43D000BF00BFFA
:101FD00021680C3151E8001F21F4807021680C3118
:101FE00041E80002002AF3D100BF00BF00BF216812
:101FF000143151E8001F21F001002168143141E83B
:102000000002002AF3D100BF00BF00BF21681431D5
:1020100051E8001F21F040002168143141E800021E
:10202000002AF3D100BF202084F83E000020206366
:1020300000BF00BF21680C3151E8001F21F01000E3
:1020400021680C3141E80002002AF3D100BFA06BE7
:10205000FEF727FFA08DE28D801A81B22046FFF7A0
:10206000E9FE03E740E0A08DE18D401A1FFA80F8F9
:10207000E08DC0B3B8F1000F35D000BF00BF2168BC
:102080000C3151E8001F21F4907021680C3141E8B7
:102090000002002AF3D100BF00BF00BF2168143145
:1020A00051E8001F21F001002168143141E80002CD
:1020B000002AF3D100BF202084F83E0000202063D6
:1020C00000BF00BF21680C3151E8001F21F0100053
:1020D00021680C3141E80002002AF3D100BF4146DB
:1020E0002046FFF7A7FEC1E605F0800030B106F0FC
:1020F000800018B1204600F05BFDB7E605F0400017
:1021000030B106F0400018B1204600F033FBADE6D8
:1021100000BFABE6D525000810B504460CB9012078
:1021200010BDA06900B100E000BF94F83D0028B9DF
:10213000002084F83C00204600F028F8242084F891
:102140003D002068C06820F400502168C860204627
:1021500000F0B0FB2068006920F49040216808611D
:102160002068406920F02A00216848612068C06822
:1021700040F400502168C86000202064202084F8CA
:102180003D0084F83E000020CAE7000010B586B08C
:102190000446142101A8FEF7DEF82E492068884283
:1021A00055D100BF002000902B48006840F48020EB
:1021B000294908600846006800F48020009000BFAC
:1021C00000BF00BF0020009023481038006840F096
:1021D00004002149103908600846006800F0040036
:1021E000009000BF00BF4FF44060019002200290B9
:1021F00000200390032004900720059001A91748B0
:10220000FFF79AF81648174908604FF000604860D9
:10221000002114488160C1604FF480610161002198
:1022200041618161C16101624162FEF7C5FF08B190
:10223000FEF70CFA00BF0B48A063846300BF0022C6
:1022400011462720FFF7FCF92720FFF7E9F906B030
:1022500010BD000000480040403802400008024025
:10226000286002404402002070B504460D46164620
:1022700094F83E00202816D105B10EB9012070BD9A
:1022800000BF94F83C00012801D10220F7E70120AB
:1022900084F83C0000BF00202063324629462046D7
:1022A00000F01EFCEBE70220E9E7000010B5044651
:1022B0003448844265D1344800783349497840EA4B
:1022C0000120C0F30A00314908802F484078C0102F
:1022D0002D49897840EA4110C0F30A002B49488013
:1022E0002948807880112849C97840EA8100264928
:1022F000097940EA8120C0F30A00244988802248F5
:10230000007940102049497940EAC110C0F30A0021
:102310001E49C8801C4840790011800808721A487C
:102320004079C0F301104872174880791649C9797D
:1023300040EA0120154948811348007A1249497A38
:1023400040EA0121114881810F48807A0E49C97AFB
:1023500040EA01210D48C1810B48017B0B48017403
:102360000948417B094841740748807B0649C97B7D
:1023700040EA012005494882122203490148FFF73B
:1023800073FF10BD000200208400002070000020B8
:102390007047704700BFFEE710B50D480D49086053
:1023A0000620486000210B488160C1604FF4003175
:1023B0000161090141610021017641768176C17692
:1023C00001774177FEF7D1FB08B1FEF73FF910BD69
:1023D00000640040D801002008B500BF0020009034
:1023E0000A48006840F40010084908600846006880
:1023F00000F40010009000BF00BF002211460C2026
:10240000FFF71EF90C20FFF70BF908BD303802402A
:1024100008B500BF002000901548006840F0080093
:10242000134908600846006800F00800009000BFEB
:1024300000BF00BF002000900846006840F0040084
:1024400008600846006800F00400009000BF00BF6C
:1024500000BF002000900846006840F0800008603F
:102460000846006800F08000009000BF00BF08BD73
:102470003038024010B50B480B4908600B484860E3
:102480004FF48051084881600021C16001610C2136
:10249000416100218161C161FFF73EFE08B1FEF795
:1024A000D5F810BD0048004000020020A0860100C1
:1024B00000BFFEE700BFFEE770B5049C00B102B9A3
:1024C00070BD017092ED000A80ED010A92ED010AE3
:1024D00080ED020A92ED020A80ED030A0361446175
:1024E00000268663466306630662C66286624662AB
:1024F00046640664C66300BFE2E77047704710B5E4
:10250000FFF71AF810BD000000B593B0302107A8FE
:10251000FDF721FF142102A8FDF71DFF00BF0020D9
:1025200001902548006840F0805023490860084623
:10253000006800F08050019000BF00BF00BF002085
:1025400001901E48006840F480401C49086008461D
:10255000006800F48040019000BF00BF0220079097
:1025600001200A9010200B9002200D9000210E9166
:1025700008210F91A821109102211191042112919B
:1025800007A8FFF7EFF908B1FEF760F80F200290F7
:1025900002200390002004904FF4A05005904FF4C7
:1025A00080500690052102A8FFF79CF808B1FEF7BD
:1025B0004DF813B000BD00004038024000700040EC
:1025C0000348006840F4700001490860704700004B
:1025D00088ED00E070B50546AC6B0020E085E08436
:1025E0002046FFF728FC70BD70B506460025B46B89
:1025F00020684069C0F3C01594F83D00212805D13A
:1026000025B10020E084204600F0C4F8206840692D
:10261000C0F3801594F83E00222805D125B1002092
:10262000E085204600F070F8206C40F01000206437
:102630002046FFF700FC70BD70B50546AC6B2868FE
:10264000006800F48070002842D1E08500BF00BF20
:1026500021680C3151E8001F21F4807021680C3191
:1026600041E80002002AF3D100BF00BF00BF21688B
:10267000143151E8001F21F001002168143141E8B4
:102680000002002AF3D100BF00BF00BF216814314F
:1026900051E8001F21F040002168143141E8000298
:1026A000002AF3D100BF202084F83E00206B0128CF
:1026B0000ED100BF00BF21680C3151E8001F21F08E
:1026C000100021680C3141E80002002AF3D100BF5C
:1026D000206B012804D1A18D2046FFF7ABFB02E05F
:1026E0002046FFF7E3FD70BD70B50546AC6B206B6F
:1026F000012805D1A08D41082046FFF79BFB02E091
:102700002046FFF745FE70BD00BF00BF02680C32D7
:1027100052E8002F22F4907102680C3242E8001354
:10272000002BF3D100BF00BF00BF0268143252E893
:10273000002F22F001010268143242E80013002B3E
:10274000F3D100BF016B01290ED100BF00BF0268A9
:102750000C3252E8002F22F0100102680C3242E8DD
:102760000013002BF3D100BF202180F83E10002180
:102770000163704710B504462068C06820F040002F
:102780002168C860202084F83D002046FFF701FE44
:10279000002010BD00BF00BF02680C3252E8002FBD
:1027A00022F0C00102680C3242E80013002BF3D182
:1027B00000BF202180F83D107047F8B5044694F81A
:1027C0003E00222873D1A068B0F5805F0CD120694B
:1027D00050B90025A66A20684068C0F30800308020
:1027E000A06A801CA06215E0A56A0026A068B0F56A
:1027F000805F03D0A06828B9206918B920684068B4
:10280000287004E02068406800F07F002870A06A0B
:10281000401CA062E08D401E80B2E085002844D1BB
:102820002068C06820F020002168C8602068C06867
:1028300020F480702168C8602068406920F00100A1
:1028400021684861202084F83E00206B012826D1B1
:102850000020206300BF00BF21680C3151E8001F39
:1028600021F0100021680C3141E80002002AF3D168
:1028700000BF2068006800F0100010280AD100BFD7
:102880000020009020680068009020684068009058
:1028900000BF00BFA18D2046FFF7CCFA02E0204622
:1028A000FFF704FD0020F8BD01E00020FBE7022057
:1028B000F9E700002DE9F84F04462068006920F48C
:1028C0004050E1680843216808612169A068084315
:1028D00061690843E169084300902068C06849F2D3
:1028E0000C618843009908432168C86020684069EA
:1028F00020F44070A1690843216848617649206846
:10290000884203D075492068884203D1FEF7C2FF90
:10291000814602E0FEF7AEFF8146E069B0F5004F68
:102920006CD102206168A0FB015003461920A9FB6D
:10293000007001462A463846FDF796FC6421B0FB3C
:10294000F1F04FEA001A02206168A0FB01510B462A
:102950001920A9FB00712A463846FDF785FC8346FD
:1029600002206168A0FB015003461920A9FB0071F9
:102970002A463846FDF778FC6421B0FBF1F000EB05
:10298000C00101EB0010ABEB8000322101EBC00075
:102990006421B0FBF1F000F0F8000AEB400A0220DD
:1029A0006168A0FB015003461920A9FB0070014695
:1029B0002A463846FDF758FC834602206168A0FB92
:1029C000015003461920A9FB00712A463846FDF73D
:1029D0004BFC6421B0FBF1F000EBC00101EB0010F7
:1029E000ABEB8000322101EBC0006421B0FBF1F0C1
:1029F00000F007005044216888606AE004206168A4
:102A0000A0FB015003461920A9FB007001462A468D
:102A10003846FDF729FC824604206168A0FB01507E
:102A200003461920A9FB007001462A463846FDF7E7
:102A30001BFC6421B0FBF1F000EBC00101EB0010C6
:102A4000AAEB8000322101EB00106421B0FBF1F011
:102A500000F0F00A04206168A0FB01700346192011
:102A6000A9FB00513A462846FDF7FEFB6421B0FB66
:102A7000F1F00AEB001A04206168A0FB01510B463B
:102A80001920A9FB00712A463846FDF7EDFB834665
:102A900004206168A0FB015003461920A9FB0070C7
:102AA00001462A463846FDF7DFFB6421B0FBF1F012
:102AB00000EBC00101EB0010ABEB8000322101EB19
:102AC00000106421B0FBF1F000F00F0050442168C9
:102AD0008860BDE8F88F000000100140001401403C
:102AE00077B581B0044615460298A062A5850020FE
:102AF0002064222084F83E002A48A16BC8632A483B
:102B0000A16B08642948A16BC8640020A16B08650B
:102B100002AE32682368191D2B46A06BFEF7C2FB7C
:102B200000BF002000902068006800902068406886
:102B3000009000BF00BF00BF002084F83C0000BF31
:102B4000206970B100BF00BF21680C3151E8001F3F
:102B500041F4807021680C3141E80002002AF3D171
:102B600000BF00BF00BF2168143151E8001F41F0D1
:102B700001002168143141E80002002AF3D100BFAE
:102B800000BF00BF2168143151E8001F41F0400030
:102B90002168143141E80002002AF3D100BF00206F
:102BA00004B070BD39260008E9260008E9250008B0
:102BB000014691F83D00212828D18868B0F5805F52
:102BC0000BD1086948B90A6A1088C0F308000B687D
:102BD0005860086A801C086205E00B6A581C08628D
:102BE00018780B685860C88C401E80B2C88458B9E9
:102BF0000868C06820F080000B68D8600868C0686A
:102C000040F040000B68D860002070470220FCE7CD
:102C100010B50248FFF710F910BD000000020020B7
:102C200000BFFEE702480068C0F3022070470000C2
:102C30000CED00E010B5002804DB0A07130E054A6E
:102C4000135406E00A07140E034A00F00F031B1F7B
:102C5000D45410BD00E400E018ED00E04A780B7891
:102C600042EA032212B20C4B1A80CA788B7842EAED
:102C7000032212B2084B5A804A790B7942EA0322A6
:102C800012B2054B9A808A799A711A4613680360CA
:102C900052684260704700000C00002008B5FEF743
:102CA00057FCFFF731FCFFF7B3FBFFF795FBFFF78E
:102CB00073FBFFF7DFFB00F03DF81848FDF700FC61
:102CC00002211648FDF7C5FC4FF47A7043F69823AD
:102CD000134A012100901348FFF7EEFB4FF47A707E
:102CE00043F698230E4A012100900F48FFF7E4FBBA
:102CF0004FF47A7043F69823094A012100900B485B
:102D0000FFF7DAFB4FF47A7043F69823044A012167
:102D100000900748FFF7D0FB00BFFEE7D801002076
:102D20000000002098000020E00000202801002082
:102D30007001002010B5122202490348FFF794FAEF
:102D400010BD000084000020000200204FF0407001
:102D5000E1EE100A7047000610160006101600007B
:102D6000000000000000010203040607080900003B
:102D70000000010203040000982D0008000000205C
:102D800044000000C4010008DC2D000844000020BD
:102D9000C4080000E00100089A99193FCDCCCC3D51
:102DA000CDCCCC3D00000000000000000000000081
:102DB0000000000000000000000000000000000013
:102DC0000000000000000000000000000000000003
:0C2DD00010000000010000000024F400CE
:040000050800018965
:00000001FF
