:020000040800F2
:10000000200A0020290200088F2200089D200008F5
:100010008D220008830400088928000800000000E1
:10002000000000000000000000000000072400089D
:1000300061060008000000000524000809240008EB
:10004000430200084302000843020008430200087C
:10005000430200084302000843020008430200086C
:100060004302000863060008430200084302000838
:10007000A5050008430200084302000843020008E7
:10008000430200084302000843020008430200083C
:10009000850400089104000843020008690600086E
:1000A000430200084302000843020008430200081C
:1000B000430200084302000843020008430200080C
:1000C00043020008430200084302000843020008FC
:1000D0004302000871280008430200087D28000838
:1000E00043020008430200084302000843020008DC
:1000F00043020008430200084302000843020008CC
:1001000043020008430200084302000843020008BB
:1001100043020008430200084302000843020008AB
:100120004302000843020008B1050008430200082A
:10013000430200084302000843020008430200088B
:10014000430200084302000843020008430200087B
:10015000430200084302000843020008430200086B
:10016000430200084302000843020008430200085B
:100170004302000843020008430200080000000098
:10018000430200084302000800F002F800F03CF8C7
:100190000AA090E8000C82448344AAF10107DA45E2
:1001A00001D100F031F8AFF2090EBAE80F0013F0F8
:1001B000010F18BFFB1A43F0010318470433000076
:1001C00024330000103A24BF78C878C1FAD8520707
:1001D00024BF30C830C144BF04680C6070470000C1
:1001E0000023002400250026103A28BF78C1FBD840
:1001F000520728BF30C148BF0B6070471FB503F0DE
:1002000045F91FBD10B510BD00F001F91146FFF70B
:10021000F5FF02F0DFFB00F01FF903B4FFF7F2FF78
:1002200003BC00F027F9000009488047094800474F
:10023000FEE7FEE7FEE7FEE7FEE7FEE7FEE7FEE796
:10024000FEE7FEE704480549054A064B70470000F3
:10025000A12400088901000820040020200A0020B1
:10026000200600202006002053EA020C00F06980DE
:100270002DE9F04B4FF00006002B1FBFB3FA83F5BA
:1002800003FA05F424FA05F65E4012BF1643B2FAEB
:1002900082F502FA05F4C5F120051EBF22FA05FC1D
:1002A00044EA0C04203556EA044C4FEA144418BFC3
:1002B000641C4FF000084FF00009904271EB030CF2
:1002C00039D3002919BFB1FA81F701FA07F6B0FA5C
:1002D00080F700FA07F6C7F120071EBF20FA07FCD7
:1002E00046EA0C062037B6FBF4FCA7EB0507103FE7
:1002F00007F01F0BCBF120060CFA0BFB2CFA06F6CD
:1003000044BFB3460026202FA4BF5E464FF0000B2B
:100310005BEA060C08BF4FF0010B19EB0B09ABFBB6
:10032000027C48EB0608C01B06FB02CC0BFB03CC8F
:1003300071EB0C01C1E70B46024641464846BDE859
:10034000F08B13B54FF000004FF00001AFF30080C9
:10035000BDE81C40704710B5203AC0F00B80B1E8F2
:100360001850203AA0E81850B1E81850A0E81850EA
:10037000BFF4F5AF5FEA027C24BFB1E81850A0E8F3
:10038000185044BF18C918C0BDE810405FEA827C0D
:1003900024BF51F8043B40F8043B08BF7047D20724
:1003A00028BF31F8023B48BF11F8012B28BF20F8C5
:1003B000023B48BF00F8012B70474FF0000200B528
:1003C000134694469646203922BFA0E80C50A0E878
:1003D0000C50B1F12001BFF4F7AF090728BFA0E826
:1003E0000C5048BF0CC05DF804EB890028BF40F8F2
:1003F000042B08BF704748BF20F8022B11F0804F34
:1004000018BF00F8012B704770477047704775465A
:1004100000F02CF8AE4605006946534620F0070070
:10042000854618B020B5FFF70DFFBDE820404FF01E
:1004300000064FF000074FF000084FF0000B21F0CE
:100440000701AC46ACE8C009ACE8C009ACE8C0099B
:10045000ACE8C0098D46704710B50446AFF3008084
:100460002046BDE81040FFF7D8BE000000487047A6
:10047000BC03002001491820ABBEFEE726000200A5
:100480007047FEE7014800F066BA00004C02002009
:10049000014800F060BA00004C020020F0B501F005
:1004A00003064FEAC2044FEAC3058BB08F0744EA44
:1004B000460445EA460504D5D204CDE90024DA0411
:1004C00003E05201CDE900245A01CDE90225CA0812
:1004D000C1F38001CDE9041201220021CDE9061209
:1004E0000E2109910892694600F03AF90BB0F0BD6F
:1004F00010B5044600F048FC2068416941F0020153
:1005000041612068416941F0100141610F49206853
:10051000884209D100231A4619462046FFF7BEFF3C
:1005200000231A460C210BE0094988420DD1002313
:100530001A4670212046FFF7B1FF00231A467C219E
:100540002046BDE81040FFF7A9BF10BD0064004081
:100550000068004030B589B0082406940024049453
:100560000594040A8DF800408DF80100080A8DF802
:100570000200100A8DF804008DF80520180A8DF885
:1005800006004FF400758DF803108DF807300295C2
:1005900008AB6A4602A9024800F07DF809B030BDF8
:1005A0004C020020014800F07DBC00005C030020EC
:1005B000014800F077BC0000FC020020016818230D
:1005C000CAB2103AB2FBF3F2054B6FF30901032AEA
:1005D0009B5CC36500D9091D816508467047000012
:1005E000A034000810B5014600208B698A6A4FF0DC
:1005F000C07453B1B3F5005F15D072B1012A0CD0AD
:10060000022A0AD0032A09D104E01AB1012A06D02D
:10061000022A03D1C96AC90100D5012010BDC96AE7
:10062000A142FAD010BD002AF7D0012AF2D0022A46
:10063000F3D0032AF3D010BD30B50468256825F443
:1006400080252560046863608368402B036803D0BD
:1006500099600068C26030BD9A600068C16030BDBA
:100660007047082000F0B4BD202000F0B1BD72B684
:10067000FEE790F82020012A07D0022A05D0416A1F
:1006800041F48021416201207047006842690A43B9
:10069000426100207047F0B590F820500468A468CB
:1006A000012D05D0022D03D0416A41F4802153E091
:1006B00014F0406F01D1E5004BD5C4F30164022C66
:1006C00003D9416A41F4000146E00125A5401D60BF
:1006D0008D684FF4C0739DB1CE6835434E6845EACE
:1006E000C605066803EB0417F5514FF4C275076899
:1006F00005EB04150E697E51097D012905D009E03D
:100700000E88CD6845EA4655EBE701684E5946F438
:1007100080764E511179D2F805504FF4C67641EAF1
:100720000525016806EB04168D511178D2F80120D9
:100730004FF4C47541EA0221026805EB04155151DA
:10074000006803EB0411425842F0010242500020BD
:10075000F0BD416A41F4001141620120F0BD00008A
:1007600010B590F82020012A07D0022A05D0416A4E
:1007700041F480214162012010BD3B48D0F80022A5
:1007800042F00102C0F80022D0F8002222F47C528C
:10079000C0F80022D0F800224B6A42EA0322C0F8D7
:1007A00000220A7D02F01F0301229A40D0F81C3279
:1007B0009343C0F81C32CB69B3B9D0F80C329343E1
:1007C000C0F80C328C894B6864F31F434C6900EB12
:1007D000C404C4F840320C890B6864F31F434C69AD
:1007E00000EBC404C4F84432CB69012B16D1D0F815
:1007F0000C321343C0F80C320C884B6864F31F436F
:100800004C6900EBC404C4F840320C89CB6864F333
:100810001F434C6900EBC404C4F844328B69002BBD
:10082000D0F804320ED01343C0F804320B69002B09
:10083000D0F8143208D01343C0F81432096A0129E1
:1008400004D008E09343EFE79343F5E7D0F81C1298
:100850001143C0F81C12D0F8001221F00101C0F8B9
:100860000012002010BD000000640040704730B549
:1008700090F82040012C05D0022C03D0416A41F4AD
:1008800080215DE00468002955D02469A40754D074
:100890004FF4D874056804EB01142D5915F00405C4
:1008A000956005682D594ED0ED08556005682C59A6
:1008B00004F00204D4604FF4DA74056804EB011408
:1008C0002D5905F00F05156105682D59C5F307254C
:1008D000956105682C59240C54614FF4DC7204684E
:1008E00002EB0112A4581C700468A458240A5C701E
:1008F0000468A458240C9C700468A258120EDA7084
:100900004FF4DE72046802EB0112A4581C710468F3
:10091000A458240A5C710468A458240C9C710468CF
:10092000A258120EDA71006881B1016941F020010C
:100930000161002030BDE468A8E7416A41F400117C
:100940004162012030BD6D0D1560AFE7C16841F017
:100950002001C160EDE72DE9F05F05460068002445
:100960004669D0F804908768D0F80CB0D0F810A091
:10097000D0F81880F10748D0F90714D00121816020
:10098000B80703D5284600F02CFA0CE0780702D50A
:100990004FF4006407E0380702D54FF4805402E0BA
:1009A000284600F01DFAF80516D529684FF4807026
:1009B0008860B80503D5284600F015FA0CE07805E4
:1009C00002D544F4005407E0380502D544F48044CD
:1009D00002E0284600F006FAF80316D529684FF41D
:1009E00080308860B80303D5284600F0FEF90CE09B
:1009F000780302D544F4004407E0380302D544F4F8
:100A0000803402E0284600F0EFF9300707D55FEAAE
:100A1000CB6004D52968102044F40074C8607007C6
:100A20004FF0080707D55FEA0B7004D52868C76048
:100A3000284600F05FF9B00706D52868C06880072F
:100A400002D0284600F058F9700607D55FEACA6060
:100A500004D52968102044F480640861B00607D5E5
:100A60005FEA0A7004D528680761284600F088F913
:100A7000F00606D528680069800702D0284600F0F5
:100A800080F9B00308D55FEAC96005D52968102050
:100A90004860284600F076F9F00307D55FEA097050
:100AA00004D528684760284600F0A0F9300446D5F0
:100AB0005FEA497040D5F00504D55FEAC87001D0FF
:100AC00044F00104B00504D55FEA887001D544F014
:100AD0000204700504D55FEA487001D544F00404AF
:100AE000300529D518F0700F26D008F07000402886
:100AF00015D006DC102809D020280AD0302816D1BD
:100B00000AE050280ED0602811D10EE044F008040D
:100B10000DE044F010040AE044F0200407E044F043
:100B2000400404E044F0800401E044F48074286848
:100B3000816921F070018161296804204860002CDE
:100B400005D0686A204368622846FFF78FFEBDE83B
:100B5000F09F70B5040003D094F8200010B104E0B9
:100B6000012070BD204600F081F82068016841F046
:100B70000101016000F036FC0546052604E000F0A6
:100B800031FC401B0A2811D820684068C007F6D005
:100B90002068016821F00201016000F023FC054695
:100BA0000BE000F01FFC401B0A2806D9606A40F4E5
:100BB0000030606284F82060D2E7206840688007D7
:100BC000EFD4207E0128206801683DD021F080010B
:100BD0000160607E01282068016838D021F0400162
:100BE0000160A07E01282068016833D021F0200137
:100BF0000160E07E0128206801682ED041F01001DC
:100C00000160207F01282068016829D021F00801B7
:100C10000160607F01282068016824D021F0040170
:100C20000160D4E902010843D4E9041211430843E6
:100C30006168491E08432168C86100206062012084
:100C400084F82000002070BD41F08001C0E741F031
:100C50004001C5E741F02001CAE721F01001CFE7CC
:100C600041F00801D4E741F00401D9E710B586B09E
:100C7000044614216846FFF7A0FB1B492068884200
:100C80002FD11A480021026842F000720260006809
:100C900000F00070059015481038026842F0080214
:100CA00002600068022200F0080005900320CDE9F0
:100CB0000210CDE900020920049069460C4800F0BA
:100CC00093FA00220E21142000F0FAFB142000F009
:100CD000E9FB00220E21152000F0F2FB152000F0A8
:100CE000E1FB06B010BD0000006400404038024047
:100CF000000C02407047000000B51F4A01688DB02B
:100D000091422DD11D4B6A460021FFF7B0FD00280E
:100D100026D10098A0F5007001380ED0012815D01A
:100D200002281FD003281BD1144907A801F0C0FDD9
:100D30001248182207A9183810E0104907A801F036
:100D4000B7FD0E48182207A9603807E00B4907A82D
:100D500001F0AEFD0948182207A94838FFF7FBFA51
:100D60000DB000BD054907A801F0A2FD03481822F7
:100D700007A93038F2E70000006400400C010020B1
:100D8000704770477047000070B5044690F8200027
:100D9000012804D0606A40F40020606218E002205C
:100DA00084F820002068016821F00101016000F052
:100DB00019FB05460EE000BF00F014FB401B0A289B
:100DC00008D9606A40F400306062052084F8200091
:100DD000012070BD20684068C007EDD1606270BD21
:100DE00070477047704770477047704770472DE9EC
:100DF000F0410446876D00F0F5FA064694F8350098
:100E00000025022806D08020606584F83450012037
:100E1000BDE8F0812068016821F0160101602068BA
:100E2000416921F080014161206C08B9A06C20B1BA
:100E30002068016821F0080101602068016821F044
:100E4000010101600CE000F0CDFA801B052807D9F4
:100E500020206065032084F8350084F83450D7E7FB
:100E600020680068C007EED194F85C103F208840ED
:100E7000B860012084F8350084F834500020C7E7BA
:100E800090F83510022903D0802141650120704778
:100E9000052180F835100068016821F0010101602A
:100EA000002070472DE9F84304464FF00009CDF8C3
:100EB000009063484FF41651A56D0068B0FBF1F740
:100EC0002E6894F85C10082000FA01F131420FD02E
:100ED00021680A6852070BD50A6822F004020A60EA
:100EE00094F85C108840A860606D40F00100606577
:100EF00094F85C104FF0010808FA01F0304208D075
:100F000021684969090604D5A860606D40F00200B7
:100F1000606594F85C1004208840304208D0216855
:100F20000968890704D5A860606D40F00400606519
:100F300094F85C1010208840304218D0216809686D
:100F4000090714D5A86020680168490304D5006822
:100F5000000308D5A16C07E00168C90503D4016846
:100F600021F008010160216C09B12046884794F8FE
:100F70005C1020208840304231D021680968C906C1
:100F80002DD5A86094F8350005282068016806D0A2
:100F9000490347D5006800031DD4616C1CE021F0B3
:100FA000160101602068416921F080014161206CD7
:100FB00008B9A06C20B12068016821F00801016027
:100FC00094F85C103F208840A86084F8358084F84D
:100FD0003490216D1FE0E16B09B120468847606DB8
:100FE00000282BD0606DC00714D0052084F8350090
:100FF0002068016821F0010101600098401C009008
:10100000B84203D820680068C007F6D184F835805C
:1010100084F83490E16C002910D001B02046BDE87E
:10102000F04308470168C905D5D4016821F01001D3
:10103000016084F8358084F83490CCE7BDE8F8830B
:10104000380000202DE9F041044600F0CBF90646B7
:101050005CB1022084F83500002584F83450206803
:10106000016821F0010101600DE00120BDE8F0817F
:1010700000F0B8F9801B052805D920206065032001
:1010800084F83500F2E720680068C007F0D12268D4
:10109000116820480140D4E901031843D4E903361C
:1010A0003343184363691843A3691843E36918433A
:1010B000236A18430843616A042903D1D4E90B1356
:1010C00019430843106020684069666A20F00701F0
:1010D00030460E43012704280CD1A06A0643E06A7B
:1010E00040B12046FFF77EFA20B14020606584F8C9
:1010F0003570BAE7206846612046FFF75FFA94F83A
:101100005C203F2191408160656584F83570002046
:10111000ACE700003F8010F02DE9F0410446866DF9
:1011200090F83400002501280DD0012084F8340007
:1011300094F835700020012F07D084F83400022580
:101140002846BDE8F0810220FBE7022784F83570CD
:1011500060652046FFF770FA94F85C103F208840E5
:10116000B0602068016841F016010160206C20B178
:101170002068016841F0080101602068016841F0C1
:1011800001010160DCE7000070B5044600F02AF9B7
:101190000546601C02D004480078044400F022F99F
:1011A000401BA042FAD370BD2C00002070B5014650
:1011B00005480024054D8069082901D0202902D165
:1011C00001F073FB2C6070BD74010020040000204E
:1011D000044910B50A68024202D00860FFF7E6FF32
:1011E00010BD0000143C01402DE9F84FDFF8BCA110
:1011F0000022012503264FF00F090AF1040BAAF182
:10120000040E00BF0B6805FA02F42340A34270D11C
:101210000F7907F00307012F01D0022F16D187683D
:101220004FEA420806FA08FC27EA0C07D1F80CC07E
:101230000CFA08FC4CEA070CC0F808C04768A74342
:101240000C79C4F3001494403C4344600C79E443AB
:10125000A4070AD0C4684FEA420C06FA0CF7BC4354
:101260008F6807FA0CF72743C7600C7904F0030472
:10127000022C12D1D40800EB840CDCF82040570774
:10128000FF0E09FA07F824EA0804D1F8108008FADA
:1012900007F848EA0408CCF8208004684FEA420CBA
:1012A00006FA0CF7BC430F7907F0030707FA0CF7AF
:1012B000274307604C6814F4403F70D03C4C2768CB
:1012C00047F480472760246822F0030704F4804431
:1012D0000094384C07EB040CDCF8084897074FEAF9
:1012E000177809FA08F7BC43334FB84202D10027F8
:1012F00024E054E0314FB84201D101271EE0304FC5
:10130000B84201D1022719E02E4FB84201D103277C
:1013100014E02D4FB84201D104270FE02B4FB84203
:1013200001D105270AE02A4FB84201D1062705E07E
:10133000284FB84201D1072700E0082707FA08F72D
:101340002743CCF80878DAF800405746D1F804C0B3
:101350009C435FEACC2C00D51C433C60DBF800408A
:101360005F46D1F804C09C435FEA8C2C00D51C4337
:101370003C60DEF800407746D1F804C09C435FEA49
:101380008C3C00D51C433C60084F083F3C68D1F8BA
:1013900004C09C435FEACC3C00D51C433C60521C1B
:1013A000102AFFF42FAFBDE8F88F0000083C014081
:1013B0004438024000300140000002400004024076
:1013C00000080240000C02400010024000140240DD
:1013D00000180240001C02400AB1816170470904F4
:1013E000FBE7000001488068704700002C000020E7
:1013F0000248816802781144816070472C00002007
:101400000B4810B5016841F400710160016841F4B6
:1014100080610160016841F480710160032000F087
:101420006FF80F2000F006F800F024F8002010BD3F
:10143000003C024070B50D4D04464FF47A71287897
:10144000B1FBF0F00A490968B1FBF0F000F00CFBC9
:1014500048B9102C07D200222146501E00F030F867
:1014600000206C6070BD012070BD00002C000020C9
:10147000380000200A4808B5016841F48041016045
:10148000006800F4804000900548001F016841F0AA
:1014900080510160006800F08050009008BD00009D
:1014A00044380240002809DB00F01F02012191406E
:1014B0004009800000F1E020C0F8001170470000F2
:1014C000F0B40E4B1B680C46C3F30223C3F10705AF
:1014D000042D00D90425191D072901D2002300E09D
:1014E000DB1E012606FA05F1491E214099409E4067
:1014F000761E16403143F0BC01F0C7B90CED00E098
:10150000064900F0070208684FF6FF03184040EA5A
:101510000220034A10430860704700000CED00E011
:101520000000FA052DE9F0470E46050065D0DFF80A
:101530001481D8F80000F7B200F00700B04207D2DB
:1015400088F80070D8F8000000F00700B04254D1CD
:1015500028683D4C810712D5400703D5206840F428
:10156000E05020602878000703D5206840F46040F0
:1015700020602068A96820F0F000084320602878E7
:10158000C0072DD0304968680839012812D00228D8
:1015900013D0032811D00968890700292DDA2168A2
:1015A00021F0030101432160FFF71CFF814641F256
:1015B000883A0EE009688903EFE709688901ECE7DA
:1015C000FFF710FFA0EB0901514502D90320BDE848
:1015D000F0872068696800F00C00B0EB810FEFD154
:1015E000D8F80010404601F00701B14207D9077052
:1015F000006800F00700B04201D00120E7E728783A
:10160000400705D52068E96820F4E05008432060D1
:101610002878000706D52068296920F4604040EA50
:10162000C100206000F038F82168084AC1F30311B6
:10163000515CC8400649086006480068FFF7FAFE9A
:101640000020C4E7003C024008380240A8340008EB
:10165000380000203000002004480549006809686F
:10166000044AC1F38221515CC84070473800002011
:1016700008380240B8340008044805490068096881
:10168000044AC1F34231515CC84070473800002021
:1016900008380240B8340008154810B5006810F04A
:1016A0000C02144813D01449042A0FD0082A0ED172
:1016B0000F4C241F2268236802F03F025B0207D50B
:1016C0002068C0F38810A0FB010106E0084610BDA9
:1016D0002168C1F38811A1FB00010023FEF7C4FDBE
:1016E0002168C1F30141491C4900B0FBF1F010BD74
:1016F000083802400024F400001BB7002DE9F84F21
:1017000004006ED02078DFF84C93C007A9F10405DF
:101710004AD009F104000168C1F38101012908D010
:101720000068C0F3810002280AD1D9F80000400205
:1017300006D52868800337D560680028E1D033E0FB
:101740006068B0F5803F10D0B0F5A02F286810D0A9
:1017500020F480302860286820F4802028606068A9
:10176000A8B1FFF73FFE06460DE0286840F4803040
:10177000F4E740F480202860F7E700BFFFF732FE6F
:10178000801B642873D828688003F7D50CE0FFF726
:1017900029FE064605E000BFFFF724FE801B6428F3
:1017A000F0D828688003F7D42078DFF8AC8280076F
:1017B0004FF0000A3ED5A748001D016811F00C0F3C
:1017C00008D00068C0F3810002280BD1D9F80000CE
:1017D000400207D42868800716D5E068012800D1A8
:1017E00012E033E1E068B8B10120C8F80000FFF76B
:1017F000F9FD064605E000BFFFF7F4FD801B022857
:10180000C0D828688007F7D52868216920F0F8003B
:1018100040EAC10028600DE0C8F800A0FFF7E2FD33
:10182000064604E0FFF7DEFD801B02281FD828686B
:101830008007F7D42078000722D5864F8748616952
:10184000703771B101210160FFF7CCFD064604E05D
:10185000FFF7C8FD801B022809D838688007F7D534
:101860000EE0C0F800A0FFF7BDFD064605E082E0EF
:10187000FFF7B8FD801B02287DD838688007F7D4B1
:101880002078400768D5DFF8CCB100270BF13C0B7E
:10189000DBF80000C0000BD4DBF8001041F08051F1
:1018A000CBF80010DBF80000012700F0805000901A
:1018B0006B4E3068C00510D4306840F480703060E2
:1018C000FFF790FD009005E0FFF78CFD0099401AAE
:1018D000022850D83068C005F6D55E4EA0686C3638
:1018E00001280FD00528306810D020F001003060AA
:1018F000306820F004003060A068B8B1FFF772FDD6
:1019000000900FE0306840F00100F4E740F0040080
:101910003060F7E7FFF766FD0099411A41F2883021
:10192000814266D830688007F4D50EE0FFF75AFD93
:10193000009007E0FFF756FD0099411A41F2883008
:10194000814256D830688007F4D42FB1DBF80010FC
:1019500021F08051CBF80010A069C8B33D49091DA2
:101960000968C1F3810102294AD00228504607D0F4
:10197000C8F8600000E03CE0FFF734FD04463BE0BF
:101980004746C8F86000FFF72DFD064605E000BF9A
:10199000FFF728FD801B02282BD828688001F7D488
:1019A000D4E907010843A16A2E4A490802EB014124
:1019B000626A41EA8211084394F82C1040EA0161FE
:1019C000C9F8001001203866FFF70CFD044606E058
:1019D0003EE000BFFFF706FD001B022809D828687B
:1019E0008001F7D534E000BFFFF7FCFC001B0228A4
:1019F00002D90320BDE8F88F28688001F4D427E0DD
:101A00000128F7D0D9F80000E26900F48001914282
:101A10001CD1226A00F03F01914217D147F6C071F4
:101A2000626A0140B1EB821F10D1A26A4FF0FF330E
:101A300000F4403103EB5202B1EB024F06D194F8AF
:101A40002C1000F07060B0EB016F01D00120D1E7E5
:101A50000020CFE70438024000004742800E474292
:101A6000007000400000FFFF10B5401EB0F1807F05
:101A700001D3012010BD4FF0E02460610F216017F9
:101A800000F003FF0020A06107202061002010BDAE
:101A900070477047F8B5016804460868CA684B6922
:101AA00010F00F0F4FF0000559D003F0010602F4BB
:101AB0009077374365D0C10705D0D10503D5216C98
:101AC00041F001012164410705D5D90703D0216CFC
:101AD00041F002012164810705D5D90703D0216CAB
:101AE00041F004012164010707D502F020013143D0
:101AF00003D0216C41F008012164216C00293AD007
:101B0000800604D5900602D5204600F081FD2068AD
:101B10004069216CC0F38010090700D460B32046EF
:101B200000F041FD20684069400621D5206814304E
:101B300050E8001F21F0400140E80012002AF5D1D2
:101B4000A06BA8B16C490165A06BFFF799F900285B
:101B500011D0A06B016D01B0BDE8F04008478306CD
:101B60000FD593060DD52046BDE8F84000F050BDD6
:101B70002046FFF78EFFF8BD2046FFF78AFF256459
:101B8000F8BD266B2023012E79D1C60677D5D6065F
:101B900075D50868486800904869400640D5A16B33
:101BA000086840680004000CEAD0A28D8242E7D9A0
:101BB000E085C869B0F5807F2DD020680C3050E8F2
:101BC000001F21F4807140E80012002AF5D120683E
:101BD000143050E8001F21F0010140E80012002AF3
:101BE000F5D12068143050E8001F21F0400140E892
:101BF0000012002AF5D184F83E30256320680C30AD
:101C000050E8001F21F0100140E80012002AF5D131
:101C1000A06BFFF7ECF8A08DE18D401A81B229E0AE
:101C2000A08DE18D401A81B2E08D0028A8D0002956
:101C3000A6D020680C3050E8002F22F4907240E8C3
:101C40000026002EF5D12068143050E8002F22F035
:101C5000010240E80026002EF5D184F83E302563CD
:101C600020680C3050E8002F22F0100240E80023DA
:101C7000002BF5D12046FFF70BFFF8BDFFE7050667
:101C80002BD5150629D594F83D002128F5D1A0685B
:101C9000B0F5805F01D12069B0B1206A411C21629A
:101CA000216800784860E08C401E0004000CE0844D
:101CB000E3D12068C16821F08001C1602068C1685B
:101CC00041F04001C160D8E7206A0088C0F30800F5
:101CD0004860206A801C2062E5E74006CDD55006AA
:101CE000CBD5CA68204622F04002CA6084F83D3055
:101CF00000F0D3F9C1E70000B124000870B504007A
:101D000004D094F83D00002510B106E0012070BD1C
:101D100084F83C50204600F023F8242084F83D004D
:101D20002068C16821F40051C160204600F0D0FC59
:101D30002068016921F4904101612068416921F026
:101D40002A0141612068C16841F40051C1602564E5
:101D5000202084F83D0084F83E00002070BD000083
:101D60002DE9F04186B0064614216846FEF725FBB2
:101D7000DFF80CC102223168002442480323072502
:101D800097064FF48068614537D13E491431D1F848
:101D900000C04CF0100CC1F800C0096801F010013F
:101DA0000591016841F0020101600068694600F098
:101DB00002000590C0208DE81500CDE903353248BA
:101DC000FFF712FA324D31482860C5E90174C5E9C0
:101DD00003486C61AC61EC612C6228466C62FFF7D1
:101DE00031F908B1FEF743FCB56300221146252006
:101DF000AE63FFF765FB25203CE0DFF898C0614546
:101E00003AD120491031D1F800C04CF4802CC1F8EF
:101E100000C0096801F480210591016841F00401C6
:101E200001600068694600F0040005904FF44060CE
:101E30008DE81500CDE903351748FFF7D5F9144DA6
:101E4000164860352860C5E90174C5E903486C612E
:101E5000AC61EC612C6228466C62FFF7F3F808B1C4
:101E6000FEF705FCB563002211462720AE63FFF79D
:101E700027FB2720FFF716FB06B0BDE8F081000026
:101E8000001001403038024000040240406402402B
:101E9000FC02002000480040000802402860024088
:101EA00090F83E30202B0ED159B152B190F83C3011
:101EB000012B08D0012380F83C300023036300F09D
:101EC0008DBC0120704702207047000070B5684942
:101ED0002DED068B88427DD1664AA2F1240110883F
:101EE000C0F30A00088050789378C00840EA431095
:101EF000C0F30A004880D4789B0943EA840413792C
:101F000044EA8324C4F30A048C805C08537944EACD
:101F1000C3149D09C4F30A04CC80C3F301130D72EA
:101F20004B72D5884D8115898D815589CD81157B61
:101F30000D74557B4D74D2894A82012B58D101F022
:101F400093F89FED4D8B53EC182B01F0B5F99FEDF5
:101F50004C9B53EC192B00F02FFF9FED4BAB53EC38
:101F60001A2B01F0ABF800F04DFE424D443D2861C4
:101F7000204601F079F80E4646EC100B044653EC6F
:101F8000182B51EC100B01F097F953EC192B00F0C2
:101F900013FF53EC1A2B01F091F800F033FE46ECDE
:101FA000104B686153EC182B51EC100B01F084F9C5
:101FB00053EC192B00F000FF53EC1A2B01F07EF8C4
:101FC00000F020FE46EC104BA86153EC182B51ECAE
:101FD000100B00E010E001F06FF953EC192B00F04A
:101FE000EBFE53EC1A2B01F069F800F00BFEE861F0
:101FF000122220491E4832E02549884235D1254920
:102000000878FF2802D04879FE2825D119484A7857
:10201000103802708B784370B1F8031049BA09B2D6
:1020200041800BB149424180012A04D0022A06D0E6
:10203000032A11D107E0B0F9021041600CE0B0F9B9
:102040000210816008E0B0F90210C160114901205E
:102050000C390860486088600E490D480622BDECC6
:10206000068BBDE87040FFF71BBFBDEC068B70BD53
:10207000B802002080000020000000000000904016
:102080000000000000A084400000000000000840A4
:10209000740200200C00002070477047FEE70268C1
:1020A0008A4202DC49428A4200DA0160704700003D
:1020B0000F4810B50D4901600621416000214FF421
:1020C00000328160C0E9031212014261017641765B
:1020D0008176C17601774177FEF73BFD002803D07A
:1020E000BDE81040FEF7C3BA10BD00000064004018
:1020F0004C020020114808B5016841F4001101604C
:10210000016801F400110091016841F4800101604F
:102110000068002200F48000009011460C20FFF7B8
:10212000CFF90C20FFF7BEF9002211463A20FFF745
:10213000C7F9BDE808403A20FFF7B4B9303802408B
:10214000F0B587B014216846FEF737F92E48002411
:10215000016841F002010160016801F0020105918E
:10216000016841F008010160016801F00801059172
:10217000016841F004010160016801F0040105916A
:10218000016841F0800101600068204E00F080008D
:102190004FF460650590002229463046FFF71CF990
:1021A0001B4F002214213846FFF716F90095012530
:1021B000CDE90154694630460394FFF715F8142021
:1021C000CDE90005CDE9025469463846FFF70CF821
:1021D000282000904FF48810CDE901046946384664
:1021E000FFF702F8002211460920FFF769F90920DC
:1021F000FFF758F9002211461720FFF761F9172061
:10220000FFF750F907B0F0BD30380240001C024023
:10221000000802400C4810B50A4901604FF4E13152
:102220004160002181600C22C160C0E9041281611B
:10223000C161FFF763FD002803D0BDE81040FEF741
:1022400016BA10BD00100140740200200D4810B5F0
:102250000B4901600C4941604FF4805181600021BD
:102260000C22C160C0E904128161C161FFF746FD23
:10227000002803D0BDE81040FEF7F9B910BD0000FA
:1022800000480040B8020020A0860100FEE7FEE7FB
:1022900030B503000ED093ED100A501A83ED110AE9
:1022A000DC6BC3E90621C3E90F04197821B10129C8
:1022B0003CD083E0002030BD00EE100AD3ED010ACF
:1022C000B8EEC00A20EE800ABDEEC00A83ED090A0E
:1022D00093ED0A0A93ED021AF8EEC00A00EE100A16
:1022E000001BB8EEC00A41EE000ABDEEE00A83ED25
:1022F0000A0A596B996300EE100A196BC3E90C01C5
:10230000B8EEC00AD3ED030A03F1280020EE800ADC
:10231000BDEEC00A83ED0B0A5969FFF7C0FED3E991
:1023200009010844D96A0844186247E0011B00EE1D
:10233000901A93ED011AF0EE001AF8EEE00AB8EEEA
:10234000C00A60EE810AFDEEE00A10EE901A00EE7F
:10235000900A596293ED021AF8EEE00A61EE200A43
:10236000FDEEE00A10EE902A00EE900A9A625D6B94
:10237000B8EEE01A00EE904A9D631D6BF8EEE00A9D
:102380005D6300EEE11A31EE000ABDEEC00A83ED96
:102390000C0AB8EEC00AD3ED030A20EE800ABDEEA7
:1023A000C00A10EE100AD8621C6A10442144084486
:1023B000186203F120001969FFF771FE188C00B252
:1023C00030BD10B50028029C1BD0002A19D0017026
:1023D00092ED000A002180ED010A92ED010A80EDE4
:1023E000020A92ED020A80ED030A816341630163F0
:1023F0000162C1628162416241640164C163C0E9FA
:10240000043410BD70477047FEF7F2BF30B593B08B
:1024100030216846FDF7D1FF14210CA8FDF7CDFF50
:102420001D480025016841F080510160006800F0FE
:10243000805011901948016841F4804101600068A2
:10244000022400F480401190012003901020049099
:10245000009406940820CDE90750A820CDE909048E
:1024600004200B906846FFF749F908B172B6FEE701
:102470000CA90F2081E831004FF4A0500F904FF4C9
:102480008050109005210CA8FFF74CF8002801D0CF
:1024900072B6FEE713B030BD403802400070004015
:1024A0000248016841F470010160704788ED00E066
:1024B00010B5806B0021C185C184FFF7EAFA10BD19
:1024C00070B5846B2068406994F83D10C0F3C0106B
:1024D0000025212904D118B1E584204600F08AF8AE
:1024E0002068406994F83E10C0F38010222904D17E
:1024F00018B1E585204600F056F8206C40F0100039
:1025000020642046FFF7C5FA70BD10B50146806B08
:1025100009680968C9052FD40021C18501680C31FB
:1025200051E8002F22F4807241E80023002BF5D1FE
:102530000168143151E8002F22F0010241E8002324
:10254000002BF5D10168143151E8002F22F0400230
:1025500041E80023002BF5D1202180F83E10016BCB
:10256000012909D101680C3151E8002F22F0100235
:1025700041E80023002BF5D1016B012902D0FFF7C0
:10258000A5FC10BD818DFFF783FA10BD10B5806BDF
:10259000016B012902D0FFF77FFD10BD818D490835
:1025A000FFF776FA10BD01680C3151E8002F22F4D4
:1025B000907241E80023002BF5D10168143151E8F5
:1025C000002F22F0010241E80023002BF5D1016B1E
:1025D000012909D101680C3151E8002F22F01002C5
:1025E00041E80023002BF5D1202180F83E10002186
:1025F0000163704701680C3151E8002F22F0C002DE
:1026000041E80023002BF5D1202180F83D107047D0
:1026100008B590F83E10222901D0022008BD82683A
:102620004FF480539A4201D1016921B1816A9A42E3
:102630001BD04AB10AE00268816A5268C2F30802FC
:102640000A80816A891C08E0026972B102685268D6
:1026500002F07F020A70816A491C8162C18D491EA5
:102660000904090CC18503D019E002685268F1E73A
:102670000168CA6822F02002CA600168CA6822F4B0
:102680008072CA6001684A6922F001024A61202111
:1026900080F83E10016B012903D0FFF717FC0020E2
:1026A00008BD0021016301680C3151E8002F22F0C0
:1026B000100241E80023002BF5D101680A68D20618
:1026C00002D50A6849680091818DFFF7E1F9E6E7D4
:1026D00070B5044600680169E26821F44051114375
:1026E00001612169A068E2690843616911430843F7
:1026F0002168CA6849F20C639A430243CA602068A1
:102700004169A26921F44071114341613149206856
:10271000884202D03049884202D1FEF7ADFF01E085
:10272000FEF79AFFE2690023192164253226B2F5EB
:10273000004F626828D0A0FB0101930F9200FDF7C3
:1027400093FD0146B0FBF5F06FF01802504301EB2A
:10275000800006EB0010B0FBF5F000F0F002B1FBDA
:10276000F5F002EB0012B1FBF5F06FF018035843DF
:1027700001EB800006EB0010B0FBF5F000F00F005D
:1027800021681044886070BDA0FB010192185B4174
:10279000FDF76AFD0146B0FBF5F00201B1FBF5F073
:1027A0006FF01803584301EB800006EBC000B0FB4C
:1027B000F5F000F0F80002EB4002B1FBF5F05843F1
:1027C00001EB800006EBC000B0FBF5F000F0070065
:1027D000D6E70000001001400014014038B58162C6
:1027E00082850025134604460564222084F83E00B5
:1027F000A26B1C48D063A26B1B481064A26B1B48E1
:10280000D064A06B0A4605652168A06B091DFEF720
:1028100083FC206801684068009084F83C5020697F
:1028200048B120680C3050E8001F41F4807140E846
:102830000012002AF5D12068143050E8001F41F042
:10284000010140E80012002AF5D12068143050E858
:10285000001F41F0400140E80012002AF5D100209D
:1028600038BD00000B2500088D250008C124000894
:102870000148FFF70FB90000740200200148FFF77C
:1028800009B90000B8020020FEE70907090E002878
:1028900004DB00F1E02080F80014704700F00F0026
:1028A00000F1E02080F8141D70474042704700009E
:1028B0002DE9F0473C4C81462DED068B6289228143
:1028C000088840BA2080488840BA6080888840BA2A
:1028D000A0808879A071208821466081821AC96809
:1028E000B2F5805F01DD491E03E012F5805F01DA79
:1028F000491CE16000F0CFFB884648EC100B9FEDCF
:102900002B9B064653EC192B51EC100B00F0D6FB19
:102910009FED28AB53EC1A2B00F0D0FB41EC180BC9
:10292000E06800F0A1FB0F4647EC100B054653ECA6
:102930001A2B51EC100B00F0C1FB53EC182B00F0DC
:1029400093F900F05FF948EC106B206153EC192B00
:1029500051EC100B00F0B2FB41EC100B47EC115B9B
:1029600053EC102B51EC110B00F07EF99FED131B73
:1029700053EC112B00F0A2FB9FED121B53EC112B1B
:1029800000F09CFB9FED111B53EC112B00F096FB0C
:1029900000F038F960614846BDEC068B1822BDE8AE
:1029A000F0470149FDF7D7BC94000020000000006B
:1029B0000000203F00000000008076400000000082
:1029C0000000004000000040FB210940000000A082
:1029D0009999D93F2DED028B82B0FEF711FDFFF7DB
:1029E00015FDFFF7ADFBFFF785FBFFF761FBFFF779
:1029F0002DFCFFF70FFC00F0EFF86C48FDF778FDB9
:102A000002216A48FDF735FE4FF47A7443F69825A3
:102A10002B46674A012167480094FFF7D2FC644ABD
:102A200064482B460C32012148300094FFF7C9FC62
:102A30005F4A60482B460C32012190300094FFF72A
:102A4000C0FC5B4A5B482B460C320121D830009415
:102A5000FFF7B7FC57494FF4FA7A01F1480440F206
:102A6000DC50C1F818A001F19002A06190614832D9
:102A7000DFF848819061504A0020514D514E10803E
:102A80008B46B0EE088A50485F46B0F90210CBF88A
:102A90001C10B5F90200E0617268CBF81820B0682C
:102AA000A0614448FFF7F4FB4248D4E906214830CE
:102AB000FFF7EEFB208C002301B2388C1A4600B2DF
:102AC000FDF748FDD8F8000001280BD048E0388C0D
:102AD000002300B21A465146FDF73CFD0220FEF7E6
:102AE00053FB01E0DFF8E490D9F800000128EED0B4
:102AF000DFF8E0909FED360ABB4685ED050A19E048
:102B0000BBF82000002300B21A465146FDF722FD13
:102B100096ED030AD5ED050AB8EEC00A30EE080AB4
:102B2000F4EEC00AF1EE10FA01DD00203860022058
:102B3000FEF72AFBD9F800004F460128E0D000201C
:102B4000C8F80000206A002800DA4042404201B282
:102B50002062BBF82000002300B21A46FDF7FAFC01
:102B600096ED030AD5ED050AB8EEC00A38EE400A24
:102B7000F4EEC00AF1EE10FA03D2206AFFF795FED8
:102B8000206296ED030AD5ED050AB8EEC00A30EED4
:102B9000080AF4EEC00AF1EE10FA03D2206AFFF739
:102BA00084FE20620220FEF7EFFA6CE74C02002060
:102BB000140000202C010020120000200000002042
:102BC000C400002070000020AC00002004000020A1
:102BD000000000000800002010B512220549064838
:102BE000FFF75EF9BDE81040062204490448FFF7EC
:102BF00057B9000080000020B80200200C0000201F
:102C00007402002021F00042A2F16052B2F5801F50
:102C100001F0004328BFD2F17F6C0BD95FEA001CA2
:102C200043EAC20242EB507018BF704728BF20F041
:102C300001007047B2F5801FBCBF184670474FEACD
:102C4000410C1CF5001F02D2084600F024BC70B5F0
:102C500000F0DEFA00000089FFF7F6BF4FF00040F9
:102C6000A0F580007047000010B591EA030F48BF3F
:102C700083F0004300F12883841A71EB030C05D222
:102C8000121943EB0C03001B61EB0C01DFF824E18C
:102C90004FEA1154A4EB135C1EEA430F18BF9EEADF
:102CA000445F73D023EA0E03DCF1200E21EA0451C5
:102CB00043F4801332D322FA0CFE10EB0E0023FAF9
:102CC0000CFE41EB0E01CCF1200E03FA0EFE10EBD0
:102CD0000E0051F10001B1F5801FCCF1200E32D26F
:102CE00001EB045112FA0EF2BDE8104058BF7047D4
:102CF000401C38BF5FEA420218BF7047002814BF6B
:102D000020F0010041F100014FEA410313F5001FDB
:102D100038BF7047A1F1C04100F0C8BA012A43EBA7
:102D20000302ACF1200CDCF11F0E32BF4FF0000E9D
:102D300023FA0CF310EB030041EB0451B4EB115FE9
:102D4000D0D0A1EB045101F5801149085FEA3000B1
:102D500001EB04510ED350F1000038BF12FA0EFE01
:102D600008D1BDE81040C9E7401C38BF5FEA420205
:102D7000CAD1C3E7BDE810404FEA410313F5001F75
:102D800038BF7047A1F1C04100F090BA9EEA445F9D
:102D900008D011EA5E0FBDE8104004BF01F0004109
:102DA00000207047BDE8104070B500F031FA00BF58
:102DB00064FBBE3E0000E0FF2DE9C04130B4DFF807
:102DC000A0C23CEA111418BF3CEA131400F0EC80D6
:102DD00081EA03051CEA111444EAD57418BF1CEA01
:102DE000131500F0C780A4EB05044FF0004545EA39
:102DF000C12145EAC32341EA505143EA525304F149
:102E00007F74994204F500344FEAC0204FEAC22291
:102E100008BF904200F09C804FEA13650FF2401605
:102E2000765D4FEA134506FB05F7C7F1807706FB91
:102E300007F74FEAD737A7FB03687642C8F5803813
:102E4000A7FB06CE38BFA8F1010807FB08E64FF044
:102E5000000EA6FB028CE6FB03CEDCF1000CCEF1EB
:102E6000004E38BFAEF1010EA6FB0C584FF0000724
:102E70004FF00005E6FB0E87A1FB08C6A0FB07CEBE
:102E800016EB0E0645F10005E1FB076515F1E04E76
:102E90007EBFA4F580345FEA46066D4116F18007D7
:102EA00045F100054FEA17274FEA066647EA05672E
:102EB000A6F1DE46B6F1805F4FEA15251FD93846E8
:102EC00024F0010C05EBC471BCF1FE6F01EB0C1199
:102ED00002D8F0BCBDE8008124425CBF01F5801E31
:102EE0009EEAC47F02D4F0BCBDE80081244238D4FD
:102EF000F0BCA1F1C041BDE8004100F0D7B94FEAF4
:102F0000D22242EA43524FEAD323A7FB02864FEA7A
:102F1000D02040EA415007FB03661EEA0E0F4FEA3D
:102F2000D12105FB026658BFA6EB0056B6EB005652
:102F30004FEA520E4EEAC37E18EB0E0E56EB530EBE
:102F4000BDD518EB02085E417F1C55F10005B6E7C0
:102F50004FF480154FF000074FF000064FF00008C7
:102F6000ADE7F0BC4FF0000001F1C04101F00041BD
:102F7000BDE8008111EA0C1F0CEA131500D00CE02B
:102F800013EA0C1F00F025804FF00000F0BC81EA2E
:102F9000030101F00041BDE80081F0BCBDE8004143
:102FA00081EA030100F082B9F0BCBDE8004170B5D0
:102FB00000F02EF9097EFC3E00F007B881EA03011B
:102FC0004FF0000001F00041704781EA030100F07A
:102FD0006DB9F0BCBDE800414FF0000021497047D9
:102FE000FFFDFBF9F7F5F4F2F0EEEDEBE9E8E6E4CE
:102FF000E3E1E0DEDDDBDAD8D7D5D4D3D1D0CFCD55
:10300000CCCBCAC8C7C6C5C4C2C1C0BFBEBDBCBB8D
:10301000BAB9B8B7B6B5B4B3B2B1B0AFAEADACAB88
:10302000AAA9A8A8A7A6A5A4A3A3A2A1A09F9F9E62
:103030009D9C9C9B9A999998979796959594939314
:10304000929191908F8F8E8E8D8C8C8B8B8A8989AB
:10305000888887878685858484838382828181802E
:103060000000FF070000F87F10F0004248BF404218
:10307000B0FA80F310FA03F10AD0C3F11D0303F58F
:1030800080634FEA415002EB035202EBD1217047BB
:103090004FF000007047B0FA80F310FA03F10AD045
:1030A000C3F11D0303F580634FEA41504FEA035219
:1030B00002EBD12170474FF000007047DFF848C1A4
:1030C00070B51CEA111E1EBF1CEA13159EEA0C0FF8
:1030D00095EA0C0F00F06F8081EA030423EA4C1399
:1030E0004EEAD47E21EA4C1141F4801143F480135E
:1030F000AE44A1FB024CA0FB0365AEF17F7E361906
:1031000055EB0C05A1FB034C4CF10003A0FB021C8A
:1031100016EB0C06654153F10003094218BF46F057
:10312000010613F4007F0BD14FEA03314FEA05305B
:10313000340341EA155140EA16506FF003020AE0E9
:103140004FEAC3214FEAC520F40241EA555140EA53
:1031500056506FF0020202EB2E4201EB025585EA57
:10316000CE710AD05FEA440C18BF24F0004450F13D
:10317000000041F1000120EAD47040F2FE7C62457B
:1031800000D270BDA84214BF4FF080444FF04044BD
:10319000002E08BF0024BEF1806FA8BFA1F1C0417E
:1031A000BDE8704080F282804FF0000001F1C04124
:1031B00001F0004170479EEA0C0F0CEA131518BF8E
:1031C00095EA0C0F06D04FF0000081EA030E0EF0D6
:1031D000004170BD00F01CF88900013E00F007B806
:1031E00000F009B84FEA430C5FEA5C5C08D081EA62
:1031F000030100F05BB84FEA410C5FEA5C5CF6D17A
:103200004FF00000014970470000FF070000F87F01
:103210000EF1020E2EF0030E5EF8046B364205D45A
:10322000012A43EB030515F5001F12D8012841EBD5
:10323000010C1CF5001F0CD80ED14FEAD17C15F5FE
:10324000001F0CEB4C0C0CF1020C08BF4CEBD37CB8
:1032500004E04FF0080C01E04FEAD37C0CEB4C0586
:1032600026FA05F606F00706B6F1040C06D20EEBB8
:10327000860CBDE870404CF0010C6047DFE80CF0B4
:10328000090B02024FF000414FF00000A1F50021B0
:1032900070BD19461046012851EB010418BFD4F542
:1032A000001484BF002001F0004170BD0808A0F5A3
:1032B00000114FEA3101704710B591EA030F48BF82
:1032C00083F000433FF5D8AC841A71EB030C07D2AE
:1032D00012198CF0004C43EB0C03001B61EB0C014A
:1032E000DFF8A4E14FEA1154A4EB135C1EEA430F8C
:1032F00018BF9EEA445F00F0B08023EA6E0352429A
:1033000021EA0451C3EB6E0338BF5B1EDCF1200ED3
:1033100025D322FA0CFE10EB0E0043FA0CFE41EB13
:103320000E01CCF1200E03FA0EFE10EB0E0051F14F
:103330000001CCF1200E29D412FA0EF201EB045157
:10334000BDE8104058BF7047401C1CBFB2F1004F91
:10335000704700280CBF491C20F00100704712EB99
:10336000020E43EB030218BF4FF0010E4EEA420279
:10337000ACF1200CDCF11E0E54D943FA0CFE10EB1C
:103380000E0051F1FF31CCF11E0ED5D50EF1010E1C
:1033900012FA0EFE404141EB010101EB445C5FEA91
:1033A0005C5C10D910EBDE7001EB045138BFBEF14C
:1033B000004FBDE8104018BF704700280CBF491CE3
:1033C00020F00100704730D24FEAD42C11F50011E3
:1033D00024F400641BD0B1FA81F20B3AA41AA41EA3
:1033E000D2F12003914030FA03F31943904001EBEE
:1033F000CC71002C01EB0451BDE81040A8BF704710
:1034000001F1C0414FF0000001F000417047B0FAF7
:1034100080F310FA03F100D110BDE41A173C4805FF
:10342000C90AE4E701EB045110BD491001EB045156
:10343000BDE810404FEA300002E04FF00001704755
:103440004A0008BF0042F8D0B2F5001F28BF7047FD
:1034500001F000414FF0000070479EEA445F07D042
:1034600011EA5E0FBDE8104004BF00210020704744
:10347000BDE8104070B5FFF7CBFE00BF40DFF63E61
:1034800083F00041104670470000E0FF4FF04070AD
:10349000E1EE100A7047FF2141EAD050C0057047A5
:1034A00000061016000610160000000000000000C4
:1034B00001020304060708090000000001020304DA
:1034C000E0340008000000203C000000C4010008B7
:1034D0001C3500083C000020E4090000E001000861
:1034E00000000000000000000000000000000000DC
:1034F000000000009A99193FCDCCCC3DCDCCCC3DFD
:103500009A99193FCDCCCC3DCDCCCC3D01000000EB
:0C35100010000000000000000024F40087
:040000050800018965
:00000001FF
