:020000040800F2
:10000000E8060020890100082B1700087D1600086B
:1000100029170008D5030008AF17000800000000EA
:100020000000000000000000000000002F17000882
:100030000F040008000000002D1700083117000809
:10004000A3010008A3010008A3010008A301000800
:10005000A3010008A3010008A3010008A3010008F0
:10006000A3010008A3010008A3010008D9030008A8
:10007000A3010008A3010008A3010008A3010008D0
:10008000A3010008A3010008A3010008A3010008C0
:10009000A3010008A3010008A3010008A3010008B0
:1000A000A3010008A3010008A3010008A3010008A0
:1000B000A3010008A3010008A3010008A301000890
:1000C000A3010008A3010008A3010008A301000880
:1000D000A3010008A3010008A3010008A301000870
:1000E000A3010008A3010008A301000800F002F822
:1000F00000F03AF80AA090E8000C82448344AAF188
:100100000107DA4501D100F02FF8AFF2090EBAE885
:100110000F0013F0010F18BFFB1A43F0010318473B
:10012000F81A0000181B0000103A24BF78C878C1E4
:10013000FAD8520724BF30C830C144BF04680C60ED
:10014000704700000023002400250026103A28BF35
:1001500078C1FBD8520728BF30C148BF0B60704739
:100160001FB51FBD10B510BD00F058F81146FFF7C0
:10017000F7FF01F02DFB00F076F803B4FFF7F2FF74
:1001800003BC00F07DF8000009488047094800479B
:10019000FEE7FEE7FEE7FEE7FEE7FEE7FEE7FEE737
:1001A000FEE7FEE704480549054A064B7047000094
:1001B000AD170008ED000008E8000020E806002068
:1001C000E8020020E80200204FF0000200B51346CC
:1001D00094469646203922BFA0E80C50A0E80C5067
:1001E000B1F12001BFF4F7AF090728BFA0E80C5018
:1001F00048BF0CC05DF804EB890028BF40F8042B11
:1002000008BF704748BF20F8022B11F0804F18BF7D
:1002100000F8012B7047704770477047754600F033
:100220002BF8AE4605006946534620F00700854688
:1002300018B020B5FFF7B6FFBDE820404FF000062C
:100240004FF000074FF000084FF0000B21F00701BE
:10025000AC46ACE8C009ACE8C009ACE8C009ACE801
:10026000C0098D46704710B50446AFF300802046A4
:10027000BDE81040FFF781BF0048704788000020AC
:1002800001491820ABBEFEE72600020070470000BF
:1002900070B5044600688168C943C90717D18168F1
:1002A00021F00101816000F013FE05460AE000BF65
:1002B00000F00EFE401B022804D920688068C0436D
:1002C000C00706D020688068C043C007F0D0002077
:1002D00070BDA06A40F01000A062E06A40F001002A
:1002E000E062012070BD10B50146406A826A12F0DA
:1002F000500F05D0006A026BBDE810400846104759
:10030000816A41F40071816201688968C1F34241E8
:1003100007290CD1017B51B9816A21F48071816276
:10032000816AC90403D4816A41F00101816200F04D
:100330005BF910BD10B5406A816A41F040018162ED
:10034000C16A41F00401C16200F050F910BD10B55E
:10035000406A00F04AF910BDF8B500260446009640
:1003600000688168C943C9072DD0816841F0010147
:100370008160164816490068B0FBF1F000E0401EAD
:1003800000900028FBD100F0A3FD054616E000BF59
:1003900000F09EFD401B022810D920688068C043F1
:1003A000C0070BD0A06A40F01000A062E06A40F0E5
:1003B0000100E06284F824600120F8BD20688068B4
:1003C000C043C007E4D10020F8BD000010000020A9
:1003D00040420F00FEE70000014800F067BB00004C
:1003E0004400002030B590F840500124AC40C56B6B
:1003F0006C60046863604368102B036803D09960E5
:100400000068C26030BD9A600068C16030BD70474E
:1004100072B6FEE7F8B500250446009590F8240072
:1004200001280BD0012084F824002046FFF730FF7C
:100430002046FFF791FF060002D050E00220F8BDF1
:10044000A06A20F4885040F00200A062022000F070
:10045000DDFD25490968B1FBF0F0400000E0401ED9
:1004600000900028FBD12068816841F0080181607C
:1004700000F02EFD074608E000F02AFDC01B0A2808
:1004800003D920688068000715D4206880680007B9
:10049000F2D42068816841F00401816000F018FD09
:1004A000074612E000F014FDC01B0A280DD9206891
:1004B0008068400709D5A06A20F0020040F01000D3
:1004C000A06284F824500120F8BD206880684007AD
:1004D000E8D4A06A20F0020040F00100A06284F895
:1004E00024503046F8BD000010000020F8B500246C
:1004F000009490F824202546012A12D0012280F889
:1005000024204A681F23072A0DD20668776B521EE3
:1005100002EB820293409F430B6893401F43776333
:1005200019E00220F8BD06680D2A0AD2376BD21FE7
:1005300002EB820293409F430B6893401F43376353
:1005400009E0F76A0D3A02EB820293409F430B6881
:1005500093401F43F7620A68072306680A2A0AD3F2
:10056000F7680A3A02EB420293409F438B6893403C
:100570001F43F76008E0376902EB420293409F4354
:100580008B6893401F4337610A68102A01D0112AF3
:1005900020D1124B02689A4217D193681B0219D4DA
:1005A000936843F4000393600968102912D10C4941
:1005B0000C4A0968B1FBF2F101EB8101490000E04E
:1005C000491E00910029FBD104E0816A41F020011D
:1005D0008162012480F824502046F8BD00240140A7
:1005E0001000002040420F00704770477047806A3B
:1005F00070470068C06C70472DE9F0414FF000076C
:1006000004003D467ED0A06A002628B9E66284F840
:100610002460204600F07EF82046FFF739FEA16AEC
:10062000C90600D420B1A06A40F01000A06269E0C1
:10063000A16A21F4885141F00201A1626268E16976
:10064000237B0A4347EA43010A43A1684FF48077BA
:10065000B94209D0012907D05FF0000194F814C015
:10066000BCF1010F02D00AE03946F7E7F3B1A36A03
:1006700043F02003A362E36A43F00103E3622368CB
:10068000D3F804C02CF4694C4CEA010CC3F804C044
:1006900021688B68DFF870C003EA0C0313438B609A
:1006A000A168B9420BD0012909D00CE0DFF85CC089
:1006B000A3690CEB43330B4343F40061DFE7218A6A
:1006C0000D05A5F580152168CB6A23F470032B4333
:1006D000CB62216889680E4B1940914208D1E662CD
:1006E000A16A21F0020141F00101A162BDE8F0819F
:1006F000A06A20F0020040F01000A062E06A40F022
:100700000100E0620120F1E7FDF7E1FF00E0FFFFFB
:10071000FE0E1FFF70B586B00025064600950195B8
:100720000295039500681A4988422ED119498869B3
:1007300040F400708861886900F400700490886952
:1007400040F0040088618869694600F00400049064
:1007500008200090032001900F4800F0C9FA104CC7
:100760000E48C4E900058020C4E902504000206121
:10077000800060612020C4E90605204600F040FAB0
:1007800008B1FFF745FE3462666206B070BD000036
:10079000002401400010024000080140080002400F
:1007A000440000202DE9F84300270D460446009739
:1007B00000F08EFB804620688168C90508D5A06AD4
:1007C00040F02000A06284F824700120BDE8F88386
:1007D0004168C90503D4C06A10F4700F2AD0022002
:1007E00000F014FC3B490968B1FBF0F6206803698E
:1007F00039490B424FEA61014FEAA1121FD1C36888
:100800004FEA611C13EA0C0F19D103690B4225D181
:10081000C068104222D1142023E0681C0AD02DB1F8
:1008200000F056FBA0EB0800A84203D9206800683E
:10083000800725D5206800688007EED52DE0036984
:100840000B4202D1C168114206D0026923490A4213
:1008500006D1C068084203D1542002E0292000E0FC
:10086000FC204643009816E0681C11D02DB100F022
:100870002FFBA0EB0800A8420AD90098B04207D28B
:10088000A06A40F00400A06284F8247003209DE771
:100890000098401C0090B042E6D321686FF012002F
:1008A0000860A06A40F40070A06220688068C0F30D
:1008B000424007280CD1207B50B9A06A20F48070F8
:1008C000A062A06AC00403D4A06A40F00100A06244
:1008D00000207BE710000020244992244992240044
:1008E00070B5044690F8240001280DD0012084F84A
:1008F00024002046FFF730FD02004FF0000005D035
:1009000084F82400104670BD022070BDA16A40F238
:100910000123994341F48071A1621F4D23681F494F
:10092000AB4218D10E6816F4702F14D0A66A46F4A4
:100930008016A6620E68760505D5A66A26F40056CE
:1009400046F48056A662A66AF6040AD5E66A26F040
:100950000606E66206E0A66A26F48016A6625E68CF
:10096000E9E7E06284F824006FF002001860206874
:100970008368C3F34243072B05D1A84208D1096815
:1009800011F4702F04D0816841F480118160B9E7BF
:10099000816841F4A001F9E70028014004240140E6
:1009A0002DE9F047894604463B4900683B4F0E1D40
:1009B0009046884201D0B84207D1306810F4702FB9
:1009C00003D001252846BDE8F08794F824000128CB
:1009D0000CD0012084F824002046FFF7BDFC050060
:1009E0004FF0000004D084F82400EBE70220EAE78F
:1009F000A16A40F60162914341F48071A1622168CD
:100A0000B94218D1326812F4702F14D0A16A41F49F
:100A10008011A1623168490505D5A16A21F4005110
:100A200041F48051A162A16AC9040AD5E16A21F0AA
:100A30000601E16206E0A26A22F48012A26249681D
:100A4000E9E7E06284F82400216A15488862216A97
:100A50001448C862216A1448086321686FF00200D4
:100A600008602068816841F4807181602168434694
:100A70004A464C31206A00F0F1F820688168C1F3E1
:100A800042410729816803D041F48011816099E7D0
:100A900041F4A001FAE700000024014000280140D1
:100AA000E70200084F030008350300082DE9F05F56
:100AB000C16B0C6801680B68D0F840C0042202FAD0
:100AC0000CF2494DDFF824A1494E4A4FDFF828B116
:100AD000DFF828E122422CD05A072AD50A6892066C
:100AE00003D40A6822F004020A600168A94201D115
:100AF000042219E0514501D1402215E0B14202D152
:100B00004FF4806210E0B94202D14FF480420BE012
:100B1000594502D14FF4802206E0714502D14FF4CD
:100B2000800201E04FF080622F4908394A60C16AB3
:100B30003BE04FF0020808FA0CF818EA040F4FF0F7
:100B400000094FF0010235D05FEA837832D50B6897
:100B50009B0605D40B6823F00A030B6080F8212064
:100B60000168A94201D1022219E0514501D1202298
:100B700015E0B14202D14FF4007210E0B94202D147
:100B80004FF400520BE0594502D14FF4003206E019
:100B9000714502D14FF4001201E04FF0007212498A
:100BA00008394A6080F82090816A00291AD0BDE88F
:100BB000F05F0847082505FA0CF5254212D01B07FF
:100BC00010D50B6823F00E030B6090F84010C36B38
:100BD00002FA01F15960826380F8212080F82090A8
:100BE000016BE2E7BDE8F09F080002401C000240F4
:100BF0003000024044000240580002406C000240B5
:100C000030B528B308C8134914221944B1FBF2F1D6
:100C10008900C16310498163022141771A6843F654
:100C2000F0718A43D0E900142143D0E902452C43F6
:100C300021430469214344692143846921431143C9
:100C4000196000214163012242770177084630BDD7
:100C5000012030BDF8FFFDBF0000024070B5044622
:100C600090F82000002501280CD0012084F82000F5
:100C700094F821600020012E06D084F8200002257F
:100C8000284670BD022070BD022684F82160A06352
:100C90002068066826F0010606602046FFF7A2FBE2
:100CA000E06A00282068016802D041F00E0106E0E9
:100CB00021F0040101602068016841F00A0101602F
:100CC0002068016841F001010160D9E770B5044670
:100CD00000F0FEF80546601C02D004480078044489
:100CE00000F0F6F8401BA042FAD370BD04000020CB
:100CF0002DE9F84FDFF8B8910024A9F1040B234641
:100D00000F2709F1040AABF1040EC9E00125A54043
:100D10002A40AA427DD1674ED1F804C0ACEB060848
:100D2000B44532D014DCBCF1030F3AD009DCBCF17D
:100D3000000F2AD0BCF1010F1CD0BCF1020F31D141
:100D40001DE0BCF1110F17D0BCF1120F2AD119E030
:100D5000B8F5881F19D006DCB8F5803F15D0B8F576
:100D6000801F1FD111E0B8F5001F0ED0B8F5041F89
:100D700018D10AE0CB6815E0CB681B1D12E0CB68E8
:100D800008330FE0CB680C330CE08B682BB1012BE0
:100D90004FF0080303D0456104E0042302E005613D
:100DA00000E00023FF2A01D8064601E000F1040616
:100DB0004FEA840501D9A5F12005D6F8008007FA8D
:100DC00005FC28EA0C0803FA05F548EA0508C6F808
:100DD00000804D68ED0062D5374DAE6946F00106E2
:100DE000AE61AD6924F0030605F001050095334DB1
:100DF00006EB050CDCF80850A607360F07FA06F8D4
:100E000025EA0805DFF8B880404503D14FF0000817
:100E100017E044E0DFF8AC80404502D14FF0010814
:100E20000FE0DFF8A480404502D14FF0020808E04F
:100E3000DFF89880404502D14FF0030801E04FF001
:100E4000040808FA06F848EA0508CCF808804D6856
:100E5000D9F80060ED024D4601D5164300E09643F7
:100E60002E604D68DAF80060AD02554601D5164394
:100E700000E096432E604D68DBF80060AD035D46F0
:100E800001D5164300E096432E604D68DEF8006001
:100E9000ED03754601D5164300E096432E60641CB1
:100EA0000D682A46E5407FF431AFBDE8F88F0000B9
:100EB0000804014000001110001002400000014031
:100EC00000080140000C01400010014000140140E6
:100ED00001488068704700000400002002488168D3
:100EE000027811448160704704000020074810B563
:100EF000016841F010010160032000F075F80F2037
:100F000000F006F800F024F8002010BD0020024098
:100F100070B50D4D04464FF47A712878B1FBF0F0AE
:100F20000A490968B1FBF0F000F094FB48B9102CB5
:100F300007D200222146501E00F036F800206C60D7
:100F400070BD012070BD00000400002010000020D2
:100F50000C4808B5816941F001018161816901F0A6
:100F600001010091C16941F08051C161C06900F087
:100F7000805000900448416821F0E06141F0007128
:100F8000416008BD0010024000000140002809DB5C
:100F900000F01F02012191404009800000F1E02093
:100FA000C0F8001170470000F0B40E4B1B680C46EF
:100FB000C3F30223C3F10705042D00D90425191D2D
:100FC000072901D2002300E0DB1E012606FA05F105
:100FD000491E214099409E40761E16403143F0BC88
:100FE00000F0E6BB0CED00E0064900F007020868DF
:100FF0004FF6FF03184040EA0220034A10430860FE
:10100000704700000CED00E00000FA0510B5014645
:101010000020234C012922D0022939D010291DD1CA
:1010200061682268D20119D51E48C1F38342C90301
:10103000805C0AD561681B4AC1F34041921E515C35
:10104000194AB2FBF1F1484301E01849484361688D
:10105000490203D440000321B0FBF1F010BD226A25
:10106000C2F30121012903D1920701D5C80310BDA4
:10107000022905D1626A920702D549F6404010BDA7
:101080000329FCD121688903F9D54FF2244010BD12
:1010900000F01AF96168C1F38131491C4900DBE7AE
:1010A00000100240EE1B000800127A0000093D000B
:1010B0002DE9F84305460078354CC00754D0E06967
:1010C0000026C00008D4E06940F08050E061E0698B
:1010D000012600F0805000902E480168C90512D406
:1010E0000168804641F480710160FFF7F1FE074618
:1010F00005E000BFFFF7ECFEC01B642823D8D8F83A
:101100000000C005F6D5206A10F4407021D0A988EF
:1011100001F4407181421CD0206A1F49012220F451
:1011200040700A6000220A602062C00711D0FFF7F9
:10113000CFFE074641F2883808E000BFFFF7C8FE3F
:10114000C11B414502D90320BDE8F883206A80070E
:10115000F4D5206A696820F44070084320621EB10B
:10116000E06920F08050E0612878800705D560684C
:10117000A96820F44040084360602878C00605D57F
:101180006068E96820F48000084360600020DBE7C5
:101190000010024000700040400442422DE9F04738
:1011A0000F46050061D0434E306800F00700B8429A
:1011B00009D2306820F0070038433060306800F012
:1011C0000700B84251D128683B4C810712D540072F
:1011D00003D5606840F4E06060602878000703D5BC
:1011E000606840F4605060606068A96820F0F000BA
:1011F000084360602878C00728D06868012810D0AC
:101200002168022810D0890700292EDA616821F0B0
:10121000030101436160FFF75BFE804641F28839BC
:101220000DE021688903EFE78901EDE7FFF750FE44
:10123000A0EB0801494502D90320BDE8F0876068AA
:10124000696800F00C00B0EB810FEFD1306800F05E
:101250000700B8420BD9306820F0070038433060EF
:10126000306800F00700B84201D00120E5E7287897
:10127000400705D56068E96820F4E06008436060D5
:101280002878000706D56068296920F4605040EA94
:10129000C100606000F028F86168084AC1F30311DA
:1012A000515CC8400649086006480068FFF730FEF8
:1012B0000020C2E70020024000100240FE1B000890
:1012C0001000002008000020044805490068496813
:1012D000044AC1F3C221515CC8407047100000208D
:1012E000001002400E1C00080E4A51680E4801F022
:1012F0000C03042B11D0082B0FD10C48C1F38343EE
:10130000C903C05C0AD55168084AC1F34041921E26
:10131000515C054A5043B0FBF1F070470449484323
:10132000704700000010024000127A00DC1B000829
:1013300000093D002DE9F84F040070D02078C04D21
:10134000C00749D06868C0F38100012807D06868E9
:10135000C0F38100022809D16868C00306D5286857
:10136000800339D560680028E7D035E06068B0F5C3
:10137000803F0BD010B1B0F5A02F11D0286820F419
:1013800080302860286820F4802002E0286840F43B
:1013900080302860606890B1FFF79AFD06460AE049
:1013A000286840F480202860F0E700BFFFF790FD38
:1013B000801B642873D828688003F7D50CE0FFF7FA
:1013C00087FD064605E000BFFFF782FD801B64280D
:1013D000F0D828688003F7D420789A4E80074FF021
:1013E00001094FF0000839D5686810F00C0F07D0DC
:1013F0006868C0F38100022809D16868C00306D478
:101400002868800714D52069012808D110E02069D8
:10141000B0B1C6F80090FFF75BFD074605E00AE1B2
:10142000FFF756FDC01B0228C4D828688007F7D5EF
:101430002868616920F0F80040EAC10028600DE0EA
:10144000C6F80080FFF744FD074604E0FFF740FDC3
:10145000C01B022823D828688007F7D4207800070B
:101460002CD57948A169D9B1C0F80090FFF730FDBB
:10147000074604E0FFF72CFDC01B02280FD8686A5E
:101480008007F7D571484FF4FA510068B0FBF1F0CE
:10149000009000BF0098411E0091FAD20EE080E05B
:1014A000C0F80080FFF714FD074604E0FFF710FDC9
:1014B000C01B022875D8686A8007F7D420784007D7
:1014C00060D5E8690027C00008D4E86940F0805082
:1014D000E861E869012700F0805000905C480168ED
:1014E000C90513D40168834641F480710160FFF798
:1014F000EFFC824606E000BFFFF7EAFCA0EB0A0023
:1015000064284ED8DBF80000C005F5D5E068012856
:101510000AD008B1052813D0286A20F001002862FB
:10152000286A20F0040002E0286A40F001002862E6
:10153000E06841F2883B98B1FFF7CAFC82460BE0B5
:10154000286A40F004002862EEE700BFFFF7C0FC05
:10155000A0EB0A0159455AD8286A8007F6D50CE055
:10156000FFF7B6FC824605E0FFF7B2FCA0EB0A01EC
:1015700059454CD8286A8007F6D41FB1E86920F095
:101580008050E861E06988B36968C1F3810102298C
:1015900044D00228C6F8608004D0FFF799FC0446C6
:1015A00038E034E0FFF794FC074604E0FFF790FCD6
:1015B000C01B02282BD828688001F7D4206AB0F518
:1015C000803F05D16868A16820F400300843686056
:1015D000D4E908010843696821F47411084368607C
:1015E000C6F86090FFF774FC044606E025E000BFF3
:1015F000FFF76EFC001B022809D828688001F7D588
:101600001BE000BFFFF764FC001B022802D9032087
:10161000BDE8F88F28688001F4D40EE00128F7D0E7
:101620006868226A00F48031914204D1616A00F452
:101630007010884201D00120EAE70020E8E70000AE
:10164000001002400000424280044242100000208C
:101650000070004010B5401EB0F1807F01D3012022
:1016600010BD4FF0E02460610F21601700F0A0F87A
:101670000020A06107202061002010BDFEE70000CF
:101680003EB5002411480094019402940E498460F0
:10169000016001250573047505614FF46021446004
:1016A000C161FEF7A9FF08B1FEF7B2FE0320CDE944
:1016B0000005694602940548FEF718FF002801D08E
:1016C000FEF7A6FE3EBD00000024014014000020ED
:1016D000094808B5416941F00101416140690022B2
:1016E00000F00100009011460B20FFF75DFCBDE803
:1016F00008400B20FFF74ABC00100240094808B51B
:10170000816941F020018161816901F0200100912E
:10171000816941F004018161806900F0040000905A
:1017200008BD000000100240FEE7FEE7704770476A
:10173000FFF7D4BB30B593B028216846FEF744FDCF
:1017400014210AA8FEF740FD002501200F951095F1
:101750001195010412958DE8230004904FF4E010D8
:10176000CDE90810022407946846FFF7E3FD08B1AD
:1017700072B6FEE70AA90F2081E831004FF48060BD
:10178000CDE90D0502210AA8FFF708FD08B172B6E0
:10179000FEE74FF4004011900F940FA8FFF788FC6C
:1017A000002801D072B6FEE713B030BD7047FEE7E7
:1017B0000907090E002804DB00F1E02080F800147E
:1017C000704700F00F0000F1E02080F8141D704712
:1017D000FFF78CFBFFF7AEFFFFF790FFFFF778FFF7
:1017E000FFF74EFF1548FEF715FE01221449134876
:1017F000FFF7D6F84FF4FA741048FFF771F832216A
:101800000E48FEF7CFFF0D48FEF7F1FE800511D51B
:101810000A48FEF7EEFE00F051F84FF06632094B31
:1018200000F060F86FF00B0200F091F900F00CF896
:10183000034908602046FFF749FADDE7140000205D
:101840000000002066660A4021F00042A2F16052CA
:10185000B2F5801F01F0004328BFD2F17F6C0BD995
:101860005FEA001C43EAC20242EB507018BF7047A7
:1018700028BF20F001007047B2F5801FBCBF18469A
:1018800070474FEA410C1CF5001F02D2084600F0D9
:1018900027B970B500F0D0F800000089FFF7F6BF57
:1018A0004FF00040A0F580007047000002494FF063
:1018B000000000F01AB900BF0000F87FB0FA80F312
:1018C00010FA03F10AD0C3F11D0303F580634FEA58
:1018D00041504FEA035202EBD12170474FF0000014
:1018E00070470000DFF848C170B51CEA111E1EBF2A
:1018F0001CEA13159EEA0C0F95EA0C0F00F06F809E
:1019000081EA030423EA4C134EEAD47E21EA4C1107
:1019100041F4801143F48013AE44A1FB024CA0FBC0
:101920000365AEF17F7E361955EB0C05A1FB034C28
:101930004CF10003A0FB021C16EB0C06654153F1B1
:101940000003094218BF46F0010613F4007F0BD1D3
:101950004FEA03314FEA0530340341EA155140EABA
:1019600016506FF003020AE04FEAC3214FEAC52088
:10197000F40241EA555140EA56506FF0020202EB80
:101980002E4201EB025585EACE710AD05FEA440C83
:1019900018BF24F0004450F1000041F1000120EA9A
:1019A000D47040F2FE7C624500D270BDA84214BFE4
:1019B0004FF080444FF04044002E08BF0024BEF199
:1019C000806FA8BFA1F1C041BDE8704080F2828065
:1019D0004FF0000001F1C04101F0004170479EEA64
:1019E0000C0F0CEA131518BF95EA0C0F06D04FF038
:1019F000000081EA030E0EF0004170BD00F01CF8FB
:101A00008900013E00F007B800F009B84FEA430C26
:101A10005FEA5C5C08D081EA030100F05BB84FEA42
:101A2000410C5FEA5C5CF6D14FF000000149704761
:101A30000000FF070000F87F0EF1020E2EF0030EEB
:101A40005EF8046B364205D4012A43EB030515F515
:101A5000001F12D8012841EB010C1CF5001F0CD807
:101A60000ED14FEAD17C15F5001F0CEB4C0C0CF19C
:101A7000020C08BF4CEBD37C04E04FF0080C01E0F3
:101A80004FEAD37C0CEB4C0526FA05F606F0070668
:101A9000B6F1040C06D20EEB860CBDE870404CF09B
:101AA000010C6047DFE80CF0090B02024FF0004127
:101AB0004FF00000A1F5002170BD19461046012825
:101AC00051EB010418BFD4F5001484BF002001F0CD
:101AD000004170BD0808A0F500114FEA31017047C0
:101AE000FF2141EAD050C00570470CF00F03092BCD
:101AF00008BF082000F059800A2B0BD0082B18BF14
:101B0000704708BF1CF0400F0AD04FF000004FF0A4
:101B1000000170471CF0400F18BF4FF000407047A5
:101B20001CF0100F08D020F0704300F07F4242EA12
:101B3000D3014FEA4370704700F0604021F07F42CC
:101B400042EA000201F07F4040EA727070474FF0B5
:101B5000FF0C4CF4E06C1CEA11531CBF9CEA030C14
:101B60009445C2BFDA4201EB02517047002B0DD001
:101B7000BCF1000F0FD0002A01F00041A4BF41F0DA
:101B8000E04141F07F614FF00000704701F00041FB
:101B90004FF00000704750EA01334FF09B0C18BF24
:101BA0004CF0806C7FF482AE70471CF4801F11D023
:101BB0001CF4E02F03D06FEACC31490070474FF09E
:101BC0004050EFF3008222F0704242EA000282F3BA
:101BD000008870474FF000007047010202030405BF
:101BE000060708090A0B0C0D0E0F10100102020364
:101BF0000405060708090A0B0C0D0E0F1010000053
:101C000000000000000001020304060708090000AC
:101C10000000010203040000381C0008000000203E
:101C200014000000280100084C1C000814000020CB
:101C3000D40600004401000800000000010000007C
:0C1C400010000000000000000024F40070
:04000005080000ED02
:00000001FF
